{
  "_format": "hh-sol-artifact-1",
  "contractName": "SolarToken",
  "sourceName": "contracts/SolarToken.sol",
  "abi": [
    {
      "inputs": [],
      "stateMutability": "nonpayable",
      "type": "constructor"
    },
    {
      "inputs": [
        {
          "internalType": "address",
          "name": "spender",
          "type": "address"
        },
        {
          "internalType": "uint256",
          "name": "allowance",
          "type": "uint256"
        },
        {
          "internalType": "uint256",
          "name": "needed",
          "type": "uint256"
        }
      ],
      "name": "ERC20InsufficientAllowance",
      "type": "error"
    },
    {
      "inputs": [
        {
          "internalType": "address",
          "name": "sender",
          "type": "address"
        },
        {
          "internalType": "uint256",
          "name": "balance",
          "type": "uint256"
        },
        {
          "internalType": "uint256",
          "name": "needed",
          "type": "uint256"
        }
      ],
      "name": "ERC20InsufficientBalance",
      "type": "error"
    },
    {
      "inputs": [
        {
          "internalType": "address",
          "name": "approver",
          "type": "address"
        }
      ],
      "name": "ERC20InvalidApprover",
      "type": "error"
    },
    {
      "inputs": [
        {
          "internalType": "address",
          "name": "receiver",
          "type": "address"
        }
      ],
      "name": "ERC20InvalidReceiver",
      "type": "error"
    },
    {
      "inputs": [
        {
          "internalType": "address",
          "name": "sender",
          "type": "address"
        }
      ],
      "name": "ERC20InvalidSender",
      "type": "error"
    },
    {
      "inputs": [
        {
          "internalType": "address",
          "name": "spender",
          "type": "address"
        }
      ],
      "name": "ERC20InvalidSpender",
      "type": "error"
    },
    {
      "inputs": [
        {
          "internalType": "address",
          "name": "owner",
          "type": "address"
        }
      ],
      "name": "OwnableInvalidOwner",
      "type": "error"
    },
    {
      "inputs": [
        {
          "internalType": "address",
          "name": "account",
          "type": "address"
        }
      ],
      "name": "OwnableUnauthorizedAccount",
      "type": "error"
    },
    {
      "anonymous": false,
      "inputs": [
        {
          "indexed": true,
          "internalType": "address",
          "name": "owner",
          "type": "address"
        },
        {
          "indexed": true,
          "internalType": "address",
          "name": "spender",
          "type": "address"
        },
        {
          "indexed": false,
          "internalType": "uint256",
          "name": "value",
          "type": "uint256"
        }
      ],
      "name": "Approval",
      "type": "event"
    },
    {
      "anonymous": false,
      "inputs": [
        {
          "indexed": true,
          "internalType": "address",
          "name": "previousOwner",
          "type": "address"
        },
        {
          "indexed": true,
          "internalType": "address",
          "name": "newOwner",
          "type": "address"
        }
      ],
      "name": "OwnershipTransferred",
      "type": "event"
    },
    {
      "anonymous": false,
      "inputs": [
        {
          "indexed": true,
          "internalType": "address",
          "name": "investor",
          "type": "address"
        },
        {
          "indexed": false,
          "internalType": "uint256",
          "name": "projectId",
          "type": "uint256"
        },
        {
          "indexed": false,
          "internalType": "uint256",
          "name": "amount",
          "type": "uint256"
        }
      ],
      "name": "TokensMinted",
      "type": "event"
    },
    {
      "anonymous": false,
      "inputs": [
        {
          "indexed": true,
          "internalType": "address",
          "name": "from",
          "type": "address"
        },
        {
          "indexed": true,
          "internalType": "address",
          "name": "to",
          "type": "address"
        },
        {
          "indexed": false,
          "internalType": "uint256",
          "name": "value",
          "type": "uint256"
        }
      ],
      "name": "Transfer",
      "type": "event"
    },
    {
      "anonymous": false,
      "inputs": [
        {
          "indexed": true,
          "internalType": "address",
          "name": "investor",
          "type": "address"
        },
        {
          "indexed": false,
          "internalType": "uint256",
          "name": "amount",
          "type": "uint256"
        }
      ],
      "name": "YieldDistributed",
      "type": "event"
    },
    {
      "inputs": [
        {
          "internalType": "address",
          "name": "owner",
          "type": "address"
        },
        {
          "internalType": "address",
          "name": "spender",
          "type": "address"
        }
      ],
      "name": "allowance",
      "outputs": [
        {
          "internalType": "uint256",
          "name": "",
          "type": "uint256"
        }
      ],
      "stateMutability": "view",
      "type": "function"
    },
    {
      "inputs": [
        {
          "internalType": "address",
          "name": "spender",
          "type": "address"
        },
        {
          "internalType": "uint256",
          "name": "value",
          "type": "uint256"
        }
      ],
      "name": "approve",
      "outputs": [
        {
          "internalType": "bool",
          "name": "",
          "type": "bool"
        }
      ],
      "stateMutability": "nonpayable",
      "type": "function"
    },
    {
      "inputs": [
        {
          "internalType": "address",
          "name": "account",
          "type": "address"
        }
      ],
      "name": "balanceOf",
      "outputs": [
        {
          "internalType": "uint256",
          "name": "",
          "type": "uint256"
        }
      ],
      "stateMutability": "view",
      "type": "function"
    },
    {
      "inputs": [],
      "name": "decimals",
      "outputs": [
        {
          "internalType": "uint8",
          "name": "",
          "type": "uint8"
        }
      ],
      "stateMutability": "view",
      "type": "function"
    },
    {
      "inputs": [
        {
          "internalType": "address",
          "name": "investor",
          "type": "address"
        },
        {
          "internalType": "uint256",
          "name": "amount",
          "type": "uint256"
        }
      ],
      "name": "distributeYield",
      "outputs": [],
      "stateMutability": "nonpayable",
      "type": "function"
    },
    {
      "inputs": [
        {
          "internalType": "address",
          "name": "investor",
          "type": "address"
        },
        {
          "internalType": "uint256",
          "name": "projectId",
          "type": "uint256"
        }
      ],
      "name": "getInvestorProjectBalance",
      "outputs": [
        {
          "internalType": "uint256",
          "name": "",
          "type": "uint256"
        }
      ],
      "stateMutability": "view",
      "type": "function"
    },
    {
      "inputs": [
        {
          "internalType": "address",
          "name": "",
          "type": "address"
        },
        {
          "internalType": "uint256",
          "name": "",
          "type": "uint256"
        }
      ],
      "name": "investorProjectTokens",
      "outputs": [
        {
          "internalType": "uint256",
          "name": "",
          "type": "uint256"
        }
      ],
      "stateMutability": "view",
      "type": "function"
    },
    {
      "inputs": [
        {
          "internalType": "address",
          "name": "investor",
          "type": "address"
        },
        {
          "internalType": "uint256",
          "name": "projectId",
          "type": "uint256"
        },
        {
          "internalType": "uint256",
          "name": "amount",
          "type": "uint256"
        }
      ],
      "name": "mintForInvestment",
      "outputs": [],
      "stateMutability": "nonpayable",
      "type": "function"
    },
    {
      "inputs": [],
      "name": "name",
      "outputs": [
        {
          "internalType": "string",
          "name": "",
          "type": "string"
        }
      ],
      "stateMutability": "view",
      "type": "function"
    },
    {
      "inputs": [],
      "name": "owner",
      "outputs": [
        {
          "internalType": "address",
          "name": "",
          "type": "address"
        }
      ],
      "stateMutability": "view",
      "type": "function"
    },
    {
      "inputs": [
        {
          "internalType": "uint256",
          "name": "",
          "type": "uint256"
        }
      ],
      "name": "projectTokens",
      "outputs": [
        {
          "internalType": "uint256",
          "name": "",
          "type": "uint256"
        }
      ],
      "stateMutability": "view",
      "type": "function"
    },
    {
      "inputs": [],
      "name": "renounceOwnership",
      "outputs": [],
      "stateMutability": "nonpayable",
      "type": "function"
    },
    {
      "inputs": [],
      "name": "symbol",
      "outputs": [
        {
          "internalType": "string",
          "name": "",
          "type": "string"
        }
      ],
      "stateMutability": "view",
      "type": "function"
    },
    {
      "inputs": [],
      "name": "totalSupply",
      "outputs": [
        {
          "internalType": "uint256",
          "name": "",
          "type": "uint256"
        }
      ],
      "stateMutability": "view",
      "type": "function"
    },
    {
      "inputs": [
        {
          "internalType": "address",
          "name": "to",
          "type": "address"
        },
        {
          "internalType": "uint256",
          "name": "value",
          "type": "uint256"
        }
      ],
      "name": "transfer",
      "outputs": [
        {
          "internalType": "bool",
          "name": "",
          "type": "bool"
        }
      ],
      "stateMutability": "nonpayable",
      "type": "function"
    },
    {
      "inputs": [
        {
          "internalType": "address",
          "name": "from",
          "type": "address"
        },
        {
          "internalType": "address",
          "name": "to",
          "type": "address"
        },
        {
          "internalType": "uint256",
          "name": "value",
          "type": "uint256"
        }
      ],
      "name": "transferFrom",
      "outputs": [
        {
          "internalType": "bool",
          "name": "",
          "type": "bool"
        }
      ],
      "stateMutability": "nonpayable",
      "type": "function"
    },
    {
      "inputs": [
        {
          "internalType": "address",
          "name": "newOwner",
          "type": "address"
        }
      ],
      "name": "transferOwnership",
      "outputs": [],
      "stateMutability": "nonpayable",
      "type": "function"
    }
  ],
  "bytecode": "0x60806040523480156200001157600080fd5b50336040518060400160405280600a81526020016929b7b630b92a37b5b2b760b11b8152506040518060400160405280600581526020016429a7a620a960d91b81525081600390816200006591906200034a565b5060046200007482826200034a565b5050506001600160a01b038116620000a757604051631e4fbdf760e01b8152600060048201526024015b60405180910390fd5b620000b281620000e2565b50620000dc33620000c66012600a6200052b565b620000d6906305f5e10062000543565b62000134565b62000573565b600580546001600160a01b038381166001600160a01b0319831681179093556040519116919082907f8be0079c531659141344cd1fd0a4f28419497f9722a3daafe3b4186f6b6457e090600090a35050565b6001600160a01b038216620001605760405163ec442f0560e01b8152600060048201526024016200009e565b6200016e6000838362000172565b5050565b6001600160a01b038316620001a15780600260008282546200019591906200055d565b90915550620002159050565b6001600160a01b03831660009081526020819052604090205481811015620001f65760405163391434e360e21b81526001600160a01b038516600482015260248101829052604481018390526064016200009e565b6001600160a01b03841660009081526020819052604090209082900390555b6001600160a01b038216620002335760028054829003905562000252565b6001600160a01b03821660009081526020819052604090208054820190555b816001600160a01b0316836001600160a01b03167fddf252ad1be2c89b69c2b068fc378daa952ba7f163c4a11628f55a4df523b3ef836040516200029891815260200190565b60405180910390a3505050565b634e487b7160e01b600052604160045260246000fd5b600181811c90821680620002d057607f821691505b602082108103620002f157634e487b7160e01b600052602260045260246000fd5b50919050565b601f8211156200034557600081815260208120601f850160051c81016020861015620003205750805b601f850160051c820191505b8181101562000341578281556001016200032c565b5050505b505050565b81516001600160401b03811115620003665762000366620002a5565b6200037e81620003778454620002bb565b84620002f7565b602080601f831160018114620003b657600084156200039d5750858301515b600019600386901b1c1916600185901b17855562000341565b600085815260208120601f198616915b82811015620003e757888601518255948401946001909101908401620003c6565b5085821015620004065787850151600019600388901b60f8161c191681555b5050505050600190811b01905550565b634e487b7160e01b600052601160045260246000fd5b600181815b808511156200046d57816000190482111562000451576200045162000416565b808516156200045f57918102915b93841c939080029062000431565b509250929050565b600082620004865750600162000525565b81620004955750600062000525565b8160018114620004ae5760028114620004b957620004d9565b600191505062000525565b60ff841115620004cd57620004cd62000416565b50506001821b62000525565b5060208310610133831016604e8410600b8410161715620004fe575081810a62000525565b6200050a83836200042c565b806000190482111562000521576200052162000416565b0290505b92915050565b60006200053c60ff84168362000475565b9392505050565b808202811582820484141762000525576200052562000416565b8082018082111562000525576200052562000416565b610ade80620005836000396000f3fe608060405234801561001057600080fd5b506004361061010b5760003560e01c8063715018a6116100a2578063b269449f11610071578063b269449f1461024f578063b9cc899d1461026f578063bd4ba9c014610282578063dd62ed3e14610295578063f2fde38b146102ce57600080fd5b8063715018a61461020f5780638da5cb5b1461021957806395d89b4114610234578063a9059cbb1461023c57600080fd5b806323b872dd116100de57806323b872dd14610199578063313ce567146101ac5780636e41e493146101bb57806370a08231146101e657600080fd5b806306fdde0314610110578063095ea7b31461012e57806318160ddd14610151578063221d21e114610163575b600080fd5b6101186102e1565b60405161012591906108dc565b60405180910390f35b61014161013c366004610946565b610373565b6040519015158152602001610125565b6002545b604051908152602001610125565b610155610171366004610946565b6001600160a01b03919091166000908152600760209081526040808320938352929052205490565b6101416101a7366004610970565b61038d565b60405160128152602001610125565b6101556101c9366004610946565b600760209081526000928352604080842090915290825290205481565b6101556101f43660046109ac565b6001600160a01b031660009081526020819052604090205490565b6102176103b1565b005b6005546040516001600160a01b039091168152602001610125565b6101186103c5565b61014161024a366004610946565b6103d4565b61015561025d3660046109ce565b60066020526000908152604090205481565b61021761027d3660046109e7565b6103e2565b610217610290366004610946565b610498565b6101556102a3366004610a1a565b6001600160a01b03918216600090815260016020908152604080832093909416825291909152205490565b6102176102dc3660046109ac565b6104f1565b6060600380546102f090610a4d565b80601f016020809104026020016040519081016040528092919081815260200182805461031c90610a4d565b80156103695780601f1061033e57610100808354040283529160200191610369565b820191906000526020600020905b81548152906001019060200180831161034c57829003601f168201915b5050505050905090565b600033610381818585610534565b60019150505b92915050565b60003361039b858285610546565b6103a68585856105c5565b506001949350505050565b6103b9610624565b6103c36000610651565b565b6060600480546102f090610a4d565b6000336103818185856105c5565b6103ea610624565b6103f483826106a3565b60008281526006602052604081208054839290610412908490610a87565b90915550506001600160a01b03831660009081526007602090815260408083208584529091528120805483929061044a908490610a87565b909155505060408051838152602081018390526001600160a01b038516917f2e8ac5177a616f2aec08c3048f5021e4e9743ece034e8d83ba5caf76688bb475910160405180910390a2505050565b6104a0610624565b6104aa82826106a3565b816001600160a01b03167f9d315883dbfe38532083c1e42c0d10fbf89ad1cabaa0c269f78b3beb892c101d826040516104e591815260200190565b60405180910390a25050565b6104f9610624565b6001600160a01b03811661052857604051631e4fbdf760e01b8152600060048201526024015b60405180910390fd5b61053181610651565b50565b61054183838360016106dd565b505050565b6001600160a01b038381166000908152600160209081526040808320938616835292905220546000198110156105bf57818110156105b057604051637dc7a0d960e11b81526001600160a01b0384166004820152602481018290526044810183905260640161051f565b6105bf848484840360006106dd565b50505050565b6001600160a01b0383166105ef57604051634b637e8f60e11b81526000600482015260240161051f565b6001600160a01b0382166106195760405163ec442f0560e01b81526000600482015260240161051f565b6105418383836107b2565b6005546001600160a01b031633146103c35760405163118cdaa760e01b815233600482015260240161051f565b600580546001600160a01b038381166001600160a01b0319831681179093556040519116919082907f8be0079c531659141344cd1fd0a4f28419497f9722a3daafe3b4186f6b6457e090600090a35050565b6001600160a01b0382166106cd5760405163ec442f0560e01b81526000600482015260240161051f565b6106d9600083836107b2565b5050565b6001600160a01b0384166107075760405163e602df0560e01b81526000600482015260240161051f565b6001600160a01b03831661073157604051634a1406b160e11b81526000600482015260240161051f565b6001600160a01b03808516600090815260016020908152604080832093871683529290522082905580156105bf57826001600160a01b0316846001600160a01b03167f8c5be1e5ebec7d5bd14f71427d1e84f3dd0314c0f7b2291e5b200ac8c7c3b925846040516107a491815260200190565b60405180910390a350505050565b6001600160a01b0383166107dd5780600260008282546107d29190610a87565b9091555061084f9050565b6001600160a01b038316600090815260208190526040902054818110156108305760405163391434e360e21b81526001600160a01b0385166004820152602481018290526044810183905260640161051f565b6001600160a01b03841660009081526020819052604090209082900390555b6001600160a01b03821661086b5760028054829003905561088a565b6001600160a01b03821660009081526020819052604090208054820190555b816001600160a01b0316836001600160a01b03167fddf252ad1be2c89b69c2b068fc378daa952ba7f163c4a11628f55a4df523b3ef836040516108cf91815260200190565b60405180910390a3505050565b600060208083528351808285015260005b81811015610909578581018301518582016040015282016108ed565b506000604082860101526040601f19601f8301168501019250505092915050565b80356001600160a01b038116811461094157600080fd5b919050565b6000806040838503121561095957600080fd5b6109628361092a565b946020939093013593505050565b60008060006060848603121561098557600080fd5b61098e8461092a565b925061099c6020850161092a565b9150604084013590509250925092565b6000602082840312156109be57600080fd5b6109c78261092a565b9392505050565b6000602082840312156109e057600080fd5b5035919050565b6000806000606084860312156109fc57600080fd5b610a058461092a565b95602085013595506040909401359392505050565b60008060408385031215610a2d57600080fd5b610a368361092a565b9150610a446020840161092a565b90509250929050565b600181811c90821680610a6157607f821691505b602082108103610a8157634e487b7160e01b600052602260045260246000fd5b50919050565b8082018082111561038757634e487b7160e01b600052601160045260246000fdfea2646970667358221220dc8416f440ac52ac13e45a463413ed294ab306668fa1987cc44fd65cf346f56d64736f6c63430008140033",
  "linkReferences": {},
  "deployedLinkReferences": {}
}