{"contracts/SolarOracle.sol":{"SolarOracle":{"abi":[{"inputs":[],"stateMutability":"nonpayable","type":"constructor"},{"inputs":[{"internalType":"address","name":"owner","type":"address"}],"name":"OwnableInvalidOwner","type":"error"},{"inputs":[{"internalType":"address","name":"account","type":"address"}],"name":"OwnableUnauthorizedAccount","type":"error"},{"anonymous":false,"inputs":[{"indexed":true,"internalType":"uint256","name":"projectId","type":"uint256"},{"indexed":false,"internalType":"uint256","name":"month","type":"uint256"}],"name":"DataVerified","type":"event"},{"anonymous":false,"inputs":[{"indexed":true,"internalType":"uint256","name":"projectId","type":"uint256"},{"indexed":false,"internalType":"uint256","name":"month","type":"uint256"},{"indexed":false,"internalType":"uint256","name":"energyProduced","type":"uint256"}],"name":"EnergyDataSubmitted","type":"event"},{"anonymous":false,"inputs":[{"indexed":true,"internalType":"address","name":"previousOwner","type":"address"},{"indexed":true,"internalType":"address","name":"newOwner","type":"address"}],"name":"OwnershipTransferred","type":"event"},{"anonymous":false,"inputs":[{"indexed":true,"internalType":"address","name":"provider","type":"address"}],"name":"ProviderAuthorized","type":"event"},{"inputs":[{"internalType":"address","name":"provider","type":"address"}],"name":"authorizeProvider","outputs":[],"stateMutability":"nonpayable","type":"function"},{"inputs":[{"internalType":"address","name":"","type":"address"}],"name":"authorizedProviders","outputs":[{"internalType":"bool","name":"","type":"bool"}],"stateMutability":"view","type":"function"},{"inputs":[{"internalType":"uint256","name":"","type":"uint256"},{"internalType":"uint256","name":"","type":"uint256"}],"name":"energyRecords","outputs":[{"internalType":"uint256","name":"projectId","type":"uint256"},{"internalType":"uint256","name":"energyProduced","type":"uint256"},{"internalType":"uint256","name":"timestamp","type":"uint256"},{"internalType":"uint256","name":"co2Reduced","type":"uint256"},{"internalType":"bool","name":"verified","type":"bool"}],"stateMutability":"view","type":"function"},{"inputs":[{"internalType":"uint256","name":"projectId","type":"uint256"},{"internalType":"uint256","name":"month","type":"uint256"}],"name":"getEnergyData","outputs":[{"components":[{"internalType":"uint256","name":"projectId","type":"uint256"},{"internalType":"uint256","name":"energyProduced","type":"uint256"},{"internalType":"uint256","name":"timestamp","type":"uint256"},{"internalType":"uint256","name":"co2Reduced","type":"uint256"},{"internalType":"bool","name":"verified","type":"bool"}],"internalType":"struct SolarOracle.EnergyData","name":"","type":"tuple"}],"stateMutability":"view","type":"function"},{"inputs":[{"internalType":"uint256","name":"projectId","type":"uint256"},{"internalType":"uint256","name":"fromMonth","type":"uint256"},{"internalType":"uint256","name":"toMonth","type":"uint256"}],"name":"getTotalEnergy","outputs":[{"internalType":"uint256","name":"total","type":"uint256"}],"stateMutability":"view","type":"function"},{"inputs":[],"name":"owner","outputs":[{"internalType":"address","name":"","type":"address"}],"stateMutability":"view","type":"function"},{"inputs":[],"name":"renounceOwnership","outputs":[],"stateMutability":"nonpayable","type":"function"},{"inputs":[{"internalType":"uint256","name":"projectId","type":"uint256"},{"internalType":"uint256","name":"month","type":"uint256"},{"internalType":"uint256","name":"energyProduced","type":"uint256"}],"name":"submitEnergyData","outputs":[],"stateMutability":"nonpayable","type":"function"},{"inputs":[{"internalType":"address","name":"newOwner","type":"address"}],"name":"transferOwnership","outputs":[],"stateMutability":"nonpayable","type":"function"},{"inputs":[{"internalType":"uint256","name":"projectId","type":"uint256"},{"internalType":"uint256","name":"month","type":"uint256"}],"name":"verifyData","outputs":[],"stateMutability":"nonpayable","type":"function"}],"evm":{"bytecode":{"linkReferences":{},"object":"608060405234801561001057600080fd5b50338061003757604051631e4fbdf760e01b81526000600482015260240160405180910390fd5b61004081610060565b50336000908152600260205260409020805460ff191660011790556100b0565b600080546001600160a01b038381166001600160a01b0319831681178455604051919092169283917f8be0079c531659141344cd1fd0a4f28419497f9722a3daafe3b4186f6b6457e09190a35050565b6106ea806100bf6000396000f3fe608060405234801561001057600080fd5b506004361061009e5760003560e01c80638da5cb5b116100665780638da5cb5b1461012c57806394d8132114610147578063d7146e031461015a578063f2fde38b146101b1578063fbe5e549146101c457600080fd5b8063112ea262146100a357806369dc3ae2146100b8578063715018a6146100f057806376f5d6a9146100f8578063858450c21461010b575b600080fd5b6100b66100b13660046105bb565b610235565b005b6100db6100c63660046105bb565b60026020526000908152604090205460ff1681565b60405190151581526020015b60405180910390f35b6100b6610289565b6100b66101063660046105eb565b61029d565b61011e6101193660046105eb565b6103b9565b6040519081526020016100e7565b6000546040516001600160a01b0390911681526020016100e7565b6100b6610155366004610617565b610406565b61016d610168366004610617565b61046d565b6040516100e79190600060a0820190508251825260208301516020830152604083015160408301526060830151606083015260808301511515608083015292915050565b6100b66101bf3660046105bb565b610500565b61020b6101d2366004610617565b60016020818152600093845260408085209091529183529120805491810154600282015460038301546004909301549192909160ff1685565b6040805195865260208601949094529284019190915260608301521515608082015260a0016100e7565b61023d61053e565b6001600160a01b038116600081815260026020526040808220805460ff19166001179055517f30aad5ec8e5ced8ded7e45959f743df649dbc96638aa1a73a56bb0c4e25aab3a9190a250565b61029161053e565b61029b600061056b565b565b3360009081526002602052604090205460ff166102f25760405162461bcd60e51b815260206004820152600e60248201526d139bdd08185d5d1a1bdc9a5e995960921b60448201526064015b60405180910390fd5b6000600a61030183600561064f565b61030b9190610666565b6040805160a081018252868152602080820186815242838501908152606084018681526000608086018181528c825260018087528883208d84528752918890209651875593519086015590516002850155516003840155516004909201805460ff191692151592909217909155815186815290810185905291925085917fd577e8e1e6ecb6e069a57b077b736feb6b477082cd7d1aca80231ecbb0f7fd66910160405180910390a250505050565b6000825b8281116103fe57600085815260016020818152604080842085855290915290912001546103ea9083610688565b9150806103f68161069b565b9150506103bd565b509392505050565b61040e61053e565b6000828152600160208181526040808420858552825292839020600401805460ff1916909217909155905182815283917f17b5981ec981bd7905f3c1a8f44eac74f1236f455c976b1fcdf6ac15002a4b2a910160405180910390a25050565b6104a16040518060a00160405280600081526020016000815260200160008152602001600081526020016000151581525090565b506000828152600160208181526040808420858552825292839020835160a0810185528154815292810154918301919091526002810154928201929092526003820154606082015260049091015460ff16151560808201525b92915050565b61050861053e565b6001600160a01b03811661053257604051631e4fbdf760e01b8152600060048201526024016102e9565b61053b8161056b565b50565b6000546001600160a01b0316331461029b5760405163118cdaa760e01b81523360048201526024016102e9565b600080546001600160a01b038381166001600160a01b0319831681178455604051919092169283917f8be0079c531659141344cd1fd0a4f28419497f9722a3daafe3b4186f6b6457e09190a35050565b6000602082840312156105cd57600080fd5b81356001600160a01b03811681146105e457600080fd5b9392505050565b60008060006060848603121561060057600080fd5b505081359360208301359350604090920135919050565b6000806040838503121561062a57600080fd5b50508035926020909101359150565b634e487b7160e01b600052601160045260246000fd5b80820281158282048414176104fa576104fa610639565b60008261068357634e487b7160e01b600052601260045260246000fd5b500490565b808201808211156104fa576104fa610639565b6000600182016106ad576106ad610639565b506001019056fea2646970667358221220d5288689073d79f9d94843570473a4c419285ea246228ee48549980b02fd9ffb64736f6c63430008140033","opcodes":"PUSH1 0x80 PUSH1 0x40 MSTORE CALLVALUE DUP1 ISZERO PUSH2 0x10 JUMPI PUSH1 0x0 DUP1 REVERT JUMPDEST POP CALLER DUP1 PUSH2 0x37 JUMPI PUSH1 0x40 MLOAD PUSH4 0x1E4FBDF7 PUSH1 0xE0 SHL DUP2 MSTORE PUSH1 0x0 PUSH1 0x4 DUP3 ADD MSTORE PUSH1 0x24 ADD PUSH1 0x40 MLOAD DUP1 SWAP2 SUB SWAP1 REVERT JUMPDEST PUSH2 0x40 DUP2 PUSH2 0x60 JUMP JUMPDEST POP CALLER PUSH1 0x0 SWAP1 DUP2 MSTORE PUSH1 0x2 PUSH1 0x20 MSTORE PUSH1 0x40 SWAP1 KECCAK256 DUP1 SLOAD PUSH1 0xFF NOT AND PUSH1 0x1 OR SWAP1 SSTORE PUSH2 0xB0 JUMP JUMPDEST PUSH1 0x0 DUP1 SLOAD PUSH1 0x1 PUSH1 0x1 PUSH1 0xA0 SHL SUB DUP4 DUP2 AND PUSH1 0x1 PUSH1 0x1 PUSH1 0xA0 SHL SUB NOT DUP4 AND DUP2 OR DUP5 SSTORE PUSH1 0x40 MLOAD SWAP2 SWAP1 SWAP3 AND SWAP3 DUP4 SWAP2 PUSH32 0x8BE0079C531659141344CD1FD0A4F28419497F9722A3DAAFE3B4186F6B6457E0 SWAP2 SWAP1 LOG3 POP POP JUMP JUMPDEST PUSH2 0x6EA DUP1 PUSH2 0xBF PUSH1 0x0 CODECOPY PUSH1 0x0 RETURN INVALID PUSH1 0x80 PUSH1 0x40 MSTORE CALLVALUE DUP1 ISZERO PUSH2 0x10 JUMPI PUSH1 0x0 DUP1 REVERT JUMPDEST POP PUSH1 0x4 CALLDATASIZE LT PUSH2 0x9E JUMPI PUSH1 0x0 CALLDATALOAD PUSH1 0xE0 SHR DUP1 PUSH4 0x8DA5CB5B GT PUSH2 0x66 JUMPI DUP1 PUSH4 0x8DA5CB5B EQ PUSH2 0x12C JUMPI DUP1 PUSH4 0x94D81321 EQ PUSH2 0x147 JUMPI DUP1 PUSH4 0xD7146E03 EQ PUSH2 0x15A JUMPI DUP1 PUSH4 0xF2FDE38B EQ PUSH2 0x1B1 JUMPI DUP1 PUSH4 0xFBE5E549 EQ PUSH2 0x1C4 JUMPI PUSH1 0x0 DUP1 REVERT JUMPDEST DUP1 PUSH4 0x112EA262 EQ PUSH2 0xA3 JUMPI DUP1 PUSH4 0x69DC3AE2 EQ PUSH2 0xB8 JUMPI DUP1 PUSH4 0x715018A6 EQ PUSH2 0xF0 JUMPI DUP1 PUSH4 0x76F5D6A9 EQ PUSH2 0xF8 JUMPI DUP1 PUSH4 0x858450C2 EQ PUSH2 0x10B JUMPI JUMPDEST PUSH1 0x0 DUP1 REVERT JUMPDEST PUSH2 0xB6 PUSH2 0xB1 CALLDATASIZE PUSH1 0x4 PUSH2 0x5BB JUMP JUMPDEST PUSH2 0x235 JUMP JUMPDEST STOP JUMPDEST PUSH2 0xDB PUSH2 0xC6 CALLDATASIZE PUSH1 0x4 PUSH2 0x5BB JUMP JUMPDEST PUSH1 0x2 PUSH1 0x20 MSTORE PUSH1 0x0 SWAP1 DUP2 MSTORE PUSH1 0x40 SWAP1 KECCAK256 SLOAD PUSH1 0xFF AND DUP2 JUMP JUMPDEST PUSH1 0x40 MLOAD SWAP1 ISZERO ISZERO DUP2 MSTORE PUSH1 0x20 ADD JUMPDEST PUSH1 0x40 MLOAD DUP1 SWAP2 SUB SWAP1 RETURN JUMPDEST PUSH2 0xB6 PUSH2 0x289 JUMP JUMPDEST PUSH2 0xB6 PUSH2 0x106 CALLDATASIZE PUSH1 0x4 PUSH2 0x5EB JUMP JUMPDEST PUSH2 0x29D JUMP JUMPDEST PUSH2 0x11E PUSH2 0x119 CALLDATASIZE PUSH1 0x4 PUSH2 0x5EB JUMP JUMPDEST PUSH2 0x3B9 JUMP JUMPDEST PUSH1 0x40 MLOAD SWAP1 DUP2 MSTORE PUSH1 0x20 ADD PUSH2 0xE7 JUMP JUMPDEST PUSH1 0x0 SLOAD PUSH1 0x40 MLOAD PUSH1 0x1 PUSH1 0x1 PUSH1 0xA0 SHL SUB SWAP1 SWAP2 AND DUP2 MSTORE PUSH1 0x20 ADD PUSH2 0xE7 JUMP JUMPDEST PUSH2 0xB6 PUSH2 0x155 CALLDATASIZE PUSH1 0x4 PUSH2 0x617 JUMP JUMPDEST PUSH2 0x406 JUMP JUMPDEST PUSH2 0x16D PUSH2 0x168 CALLDATASIZE PUSH1 0x4 PUSH2 0x617 JUMP JUMPDEST PUSH2 0x46D JUMP JUMPDEST PUSH1 0x40 MLOAD PUSH2 0xE7 SWAP2 SWAP1 PUSH1 0x0 PUSH1 0xA0 DUP3 ADD SWAP1 POP DUP3 MLOAD DUP3 MSTORE PUSH1 0x20 DUP4 ADD MLOAD PUSH1 0x20 DUP4 ADD MSTORE PUSH1 0x40 DUP4 ADD MLOAD PUSH1 0x40 DUP4 ADD MSTORE PUSH1 0x60 DUP4 ADD MLOAD PUSH1 0x60 DUP4 ADD MSTORE PUSH1 0x80 DUP4 ADD MLOAD ISZERO ISZERO PUSH1 0x80 DUP4 ADD MSTORE SWAP3 SWAP2 POP POP JUMP JUMPDEST PUSH2 0xB6 PUSH2 0x1BF CALLDATASIZE PUSH1 0x4 PUSH2 0x5BB JUMP JUMPDEST PUSH2 0x500 JUMP JUMPDEST PUSH2 0x20B PUSH2 0x1D2 CALLDATASIZE PUSH1 0x4 PUSH2 0x617 JUMP JUMPDEST PUSH1 0x1 PUSH1 0x20 DUP2 DUP2 MSTORE PUSH1 0x0 SWAP4 DUP5 MSTORE PUSH1 0x40 DUP1 DUP6 KECCAK256 SWAP1 SWAP2 MSTORE SWAP2 DUP4 MSTORE SWAP2 KECCAK256 DUP1 SLOAD SWAP2 DUP2 ADD SLOAD PUSH1 0x2 DUP3 ADD SLOAD PUSH1 0x3 DUP4 ADD SLOAD PUSH1 0x4 SWAP1 SWAP4 ADD SLOAD SWAP2 SWAP3 SWAP1 SWAP2 PUSH1 0xFF AND DUP6 JUMP JUMPDEST PUSH1 0x40 DUP1 MLOAD SWAP6 DUP7 MSTORE PUSH1 0x20 DUP7 ADD SWAP5 SWAP1 SWAP5 MSTORE SWAP3 DUP5 ADD SWAP2 SWAP1 SWAP2 MSTORE PUSH1 0x60 DUP4 ADD MSTORE ISZERO ISZERO PUSH1 0x80 DUP3 ADD MSTORE PUSH1 0xA0 ADD PUSH2 0xE7 JUMP JUMPDEST PUSH2 0x23D PUSH2 0x53E JUMP JUMPDEST PUSH1 0x1 PUSH1 0x1 PUSH1 0xA0 SHL SUB DUP2 AND PUSH1 0x0 DUP2 DUP2 MSTORE PUSH1 0x2 PUSH1 0x20 MSTORE PUSH1 0x40 DUP1 DUP3 KECCAK256 DUP1 SLOAD PUSH1 0xFF NOT AND PUSH1 0x1 OR SWAP1 SSTORE MLOAD PUSH32 0x30AAD5EC8E5CED8DED7E45959F743DF649DBC96638AA1A73A56BB0C4E25AAB3A SWAP2 SWAP1 LOG2 POP JUMP JUMPDEST PUSH2 0x291 PUSH2 0x53E JUMP JUMPDEST PUSH2 0x29B PUSH1 0x0 PUSH2 0x56B JUMP JUMPDEST JUMP JUMPDEST CALLER PUSH1 0x0 SWAP1 DUP2 MSTORE PUSH1 0x2 PUSH1 0x20 MSTORE PUSH1 0x40 SWAP1 KECCAK256 SLOAD PUSH1 0xFF AND PUSH2 0x2F2 JUMPI PUSH1 0x40 MLOAD PUSH3 0x461BCD PUSH1 0xE5 SHL DUP2 MSTORE PUSH1 0x20 PUSH1 0x4 DUP3 ADD MSTORE PUSH1 0xE PUSH1 0x24 DUP3 ADD MSTORE PUSH14 0x139BDD08185D5D1A1BDC9A5E9959 PUSH1 0x92 SHL PUSH1 0x44 DUP3 ADD MSTORE PUSH1 0x64 ADD JUMPDEST PUSH1 0x40 MLOAD DUP1 SWAP2 SUB SWAP1 REVERT JUMPDEST PUSH1 0x0 PUSH1 0xA PUSH2 0x301 DUP4 PUSH1 0x5 PUSH2 0x64F JUMP JUMPDEST PUSH2 0x30B SWAP2 SWAP1 PUSH2 0x666 JUMP JUMPDEST PUSH1 0x40 DUP1 MLOAD PUSH1 0xA0 DUP2 ADD DUP3 MSTORE DUP7 DUP2 MSTORE PUSH1 0x20 DUP1 DUP3 ADD DUP7 DUP2 MSTORE TIMESTAMP DUP4 DUP6 ADD SWAP1 DUP2 MSTORE PUSH1 0x60 DUP5 ADD DUP7 DUP2 MSTORE PUSH1 0x0 PUSH1 0x80 DUP7 ADD DUP2 DUP2 MSTORE DUP13 DUP3 MSTORE PUSH1 0x1 DUP1 DUP8 MSTORE DUP9 DUP4 KECCAK256 DUP14 DUP5 MSTORE DUP8 MSTORE SWAP2 DUP9 SWAP1 KECCAK256 SWAP7 MLOAD DUP8 SSTORE SWAP4 MLOAD SWAP1 DUP7 ADD SSTORE SWAP1 MLOAD PUSH1 0x2 DUP6 ADD SSTORE MLOAD PUSH1 0x3 DUP5 ADD SSTORE MLOAD PUSH1 0x4 SWAP1 SWAP3 ADD DUP1 SLOAD PUSH1 0xFF NOT AND SWAP3 ISZERO ISZERO SWAP3 SWAP1 SWAP3 OR SWAP1 SWAP2 SSTORE DUP2 MLOAD DUP7 DUP2 MSTORE SWAP1 DUP2 ADD DUP6 SWAP1 MSTORE SWAP2 SWAP3 POP DUP6 SWAP2 PUSH32 0xD577E8E1E6ECB6E069A57B077B736FEB6B477082CD7D1ACA80231ECBB0F7FD66 SWAP2 ADD PUSH1 0x40 MLOAD DUP1 SWAP2 SUB SWAP1 LOG2 POP POP POP POP JUMP JUMPDEST PUSH1 0x0 DUP3 JUMPDEST DUP3 DUP2 GT PUSH2 0x3FE JUMPI PUSH1 0x0 DUP6 DUP2 MSTORE PUSH1 0x1 PUSH1 0x20 DUP2 DUP2 MSTORE PUSH1 0x40 DUP1 DUP5 KECCAK256 DUP6 DUP6 MSTORE SWAP1 SWAP2 MSTORE SWAP1 SWAP2 KECCAK256 ADD SLOAD PUSH2 0x3EA SWAP1 DUP4 PUSH2 0x688 JUMP JUMPDEST SWAP2 POP DUP1 PUSH2 0x3F6 DUP2 PUSH2 0x69B JUMP JUMPDEST SWAP2 POP POP PUSH2 0x3BD JUMP JUMPDEST POP SWAP4 SWAP3 POP POP POP JUMP JUMPDEST PUSH2 0x40E PUSH2 0x53E JUMP JUMPDEST PUSH1 0x0 DUP3 DUP2 MSTORE PUSH1 0x1 PUSH1 0x20 DUP2 DUP2 MSTORE PUSH1 0x40 DUP1 DUP5 KECCAK256 DUP6 DUP6 MSTORE DUP3 MSTORE SWAP3 DUP4 SWAP1 KECCAK256 PUSH1 0x4 ADD DUP1 SLOAD PUSH1 0xFF NOT AND SWAP1 SWAP3 OR SWAP1 SWAP2 SSTORE SWAP1 MLOAD DUP3 DUP2 MSTORE DUP4 SWAP2 PUSH32 0x17B5981EC981BD7905F3C1A8F44EAC74F1236F455C976B1FCDF6AC15002A4B2A SWAP2 ADD PUSH1 0x40 MLOAD DUP1 SWAP2 SUB SWAP1 LOG2 POP POP JUMP JUMPDEST PUSH2 0x4A1 PUSH1 0x40 MLOAD DUP1 PUSH1 0xA0 ADD PUSH1 0x40 MSTORE DUP1 PUSH1 0x0 DUP2 MSTORE PUSH1 0x20 ADD PUSH1 0x0 DUP2 MSTORE PUSH1 0x20 ADD PUSH1 0x0 DUP2 MSTORE PUSH1 0x20 ADD PUSH1 0x0 DUP2 MSTORE PUSH1 0x20 ADD PUSH1 0x0 ISZERO ISZERO DUP2 MSTORE POP SWAP1 JUMP JUMPDEST POP PUSH1 0x0 DUP3 DUP2 MSTORE PUSH1 0x1 PUSH1 0x20 DUP2 DUP2 MSTORE PUSH1 0x40 DUP1 DUP5 KECCAK256 DUP6 DUP6 MSTORE DUP3 MSTORE SWAP3 DUP4 SWAP1 KECCAK256 DUP4 MLOAD PUSH1 0xA0 DUP2 ADD DUP6 MSTORE DUP2 SLOAD DUP2 MSTORE SWAP3 DUP2 ADD SLOAD SWAP2 DUP4 ADD SWAP2 SWAP1 SWAP2 MSTORE PUSH1 0x2 DUP2 ADD SLOAD SWAP3 DUP3 ADD SWAP3 SWAP1 SWAP3 MSTORE PUSH1 0x3 DUP3 ADD SLOAD PUSH1 0x60 DUP3 ADD MSTORE PUSH1 0x4 SWAP1 SWAP2 ADD SLOAD PUSH1 0xFF AND ISZERO ISZERO PUSH1 0x80 DUP3 ADD MSTORE JUMPDEST SWAP3 SWAP2 POP POP JUMP JUMPDEST PUSH2 0x508 PUSH2 0x53E JUMP JUMPDEST PUSH1 0x1 PUSH1 0x1 PUSH1 0xA0 SHL SUB DUP2 AND PUSH2 0x532 JUMPI PUSH1 0x40 MLOAD PUSH4 0x1E4FBDF7 PUSH1 0xE0 SHL DUP2 MSTORE PUSH1 0x0 PUSH1 0x4 DUP3 ADD MSTORE PUSH1 0x24 ADD PUSH2 0x2E9 JUMP JUMPDEST PUSH2 0x53B DUP2 PUSH2 0x56B JUMP JUMPDEST POP JUMP JUMPDEST PUSH1 0x0 SLOAD PUSH1 0x1 PUSH1 0x1 PUSH1 0xA0 SHL SUB AND CALLER EQ PUSH2 0x29B JUMPI PUSH1 0x40 MLOAD PUSH4 0x118CDAA7 PUSH1 0xE0 SHL DUP2 MSTORE CALLER PUSH1 0x4 DUP3 ADD MSTORE PUSH1 0x24 ADD PUSH2 0x2E9 JUMP JUMPDEST PUSH1 0x0 DUP1 SLOAD PUSH1 0x1 PUSH1 0x1 PUSH1 0xA0 SHL SUB DUP4 DUP2 AND PUSH1 0x1 PUSH1 0x1 PUSH1 0xA0 SHL SUB NOT DUP4 AND DUP2 OR DUP5 SSTORE PUSH1 0x40 MLOAD SWAP2 SWAP1 SWAP3 AND SWAP3 DUP4 SWAP2 PUSH32 0x8BE0079C531659141344CD1FD0A4F28419497F9722A3DAAFE3B4186F6B6457E0 SWAP2 SWAP1 LOG3 POP POP JUMP JUMPDEST PUSH1 0x0 PUSH1 0x20 DUP3 DUP5 SUB SLT ISZERO PUSH2 0x5CD JUMPI PUSH1 0x0 DUP1 REVERT JUMPDEST DUP2 CALLDATALOAD PUSH1 0x1 PUSH1 0x1 PUSH1 0xA0 SHL SUB DUP2 AND DUP2 EQ PUSH2 0x5E4 JUMPI PUSH1 0x0 DUP1 REVERT JUMPDEST SWAP4 SWAP3 POP POP POP JUMP JUMPDEST PUSH1 0x0 DUP1 PUSH1 0x0 PUSH1 0x60 DUP5 DUP7 SUB SLT ISZERO PUSH2 0x600 JUMPI PUSH1 0x0 DUP1 REVERT JUMPDEST POP POP DUP2 CALLDATALOAD SWAP4 PUSH1 0x20 DUP4 ADD CALLDATALOAD SWAP4 POP PUSH1 0x40 SWAP1 SWAP3 ADD CALLDATALOAD SWAP2 SWAP1 POP JUMP JUMPDEST PUSH1 0x0 DUP1 PUSH1 0x40 DUP4 DUP6 SUB SLT ISZERO PUSH2 0x62A JUMPI PUSH1 0x0 DUP1 REVERT JUMPDEST POP POP DUP1 CALLDATALOAD SWAP3 PUSH1 0x20 SWAP1 SWAP2 ADD CALLDATALOAD SWAP2 POP JUMP JUMPDEST PUSH4 0x4E487B71 PUSH1 0xE0 SHL PUSH1 0x0 MSTORE PUSH1 0x11 PUSH1 0x4 MSTORE PUSH1 0x24 PUSH1 0x0 REVERT JUMPDEST DUP1 DUP3 MUL DUP2 ISZERO DUP3 DUP3 DIV DUP5 EQ OR PUSH2 0x4FA JUMPI PUSH2 0x4FA PUSH2 0x639 JUMP JUMPDEST PUSH1 0x0 DUP3 PUSH2 0x683 JUMPI PUSH4 0x4E487B71 PUSH1 0xE0 SHL PUSH1 0x0 MSTORE PUSH1 0x12 PUSH1 0x4 MSTORE PUSH1 0x24 PUSH1 0x0 REVERT JUMPDEST POP DIV SWAP1 JUMP JUMPDEST DUP1 DUP3 ADD DUP1 DUP3 GT ISZERO PUSH2 0x4FA JUMPI PUSH2 0x4FA PUSH2 0x639 JUMP JUMPDEST PUSH1 0x0 PUSH1 0x1 DUP3 ADD PUSH2 0x6AD JUMPI PUSH2 0x6AD PUSH2 0x639 JUMP JUMPDEST POP PUSH1 0x1 ADD SWAP1 JUMP INVALID LOG2 PUSH5 0x6970667358 0x22 SLT KECCAK256 0xD5 0x28 DUP7 DUP10 SMOD RETURNDATASIZE PUSH26 0xF9D94843570473A4C419285EA246228EE48549980B02FD9FFB64 PUSH20 0x6F6C634300081400330000000000000000000000 "},"methodIdentifiers":{"authorizeProvider(address)":"112ea262","authorizedProviders(address)":"69dc3ae2","energyRecords(uint256,uint256)":"fbe5e549","getEnergyData(uint256,uint256)":"d7146e03","getTotalEnergy(uint256,uint256,uint256)":"858450c2","owner()":"8da5cb5b","renounceOwnership()":"715018a6","submitEnergyData(uint256,uint256,uint256)":"76f5d6a9","transferOwnership(address)":"f2fde38b","verifyData(uint256,uint256)":"94d81321"}}}}}