{
  "_format": "hh-sol-artifact-1",
  "contractName": "MockUSDT",
  "sourceName": "contracts/MockUSDT.sol",
  "abi": [
    {
      "inputs": [],
      "stateMutability": "nonpayable",
      "type": "constructor"
    },
    {
      "inputs": [
        {
          "internalType": "address",
          "name": "spender",
          "type": "address"
        },
        {
          "internalType": "uint256",
          "name": "allowance",
          "type": "uint256"
        },
        {
          "internalType": "uint256",
          "name": "needed",
          "type": "uint256"
        }
      ],
      "name": "ERC20InsufficientAllowance",
      "type": "error"
    },
    {
      "inputs": [
        {
          "internalType": "address",
          "name": "sender",
          "type": "address"
        },
        {
          "internalType": "uint256",
          "name": "balance",
          "type": "uint256"
        },
        {
          "internalType": "uint256",
          "name": "needed",
          "type": "uint256"
        }
      ],
      "name": "ERC20InsufficientBalance",
      "type": "error"
    },
    {
      "inputs": [
        {
          "internalType": "address",
          "name": "approver",
          "type": "address"
        }
      ],
      "name": "ERC20InvalidApprover",
      "type": "error"
    },
    {
      "inputs": [
        {
          "internalType": "address",
          "name": "receiver",
          "type": "address"
        }
      ],
      "name": "ERC20InvalidReceiver",
      "type": "error"
    },
    {
      "inputs": [
        {
          "internalType": "address",
          "name": "sender",
          "type": "address"
        }
      ],
      "name": "ERC20InvalidSender",
      "type": "error"
    },
    {
      "inputs": [
        {
          "internalType": "address",
          "name": "spender",
          "type": "address"
        }
      ],
      "name": "ERC20InvalidSpender",
      "type": "error"
    },
    {
      "anonymous": false,
      "inputs": [
        {
          "indexed": true,
          "internalType": "address",
          "name": "owner",
          "type": "address"
        },
        {
          "indexed": true,
          "internalType": "address",
          "name": "spender",
          "type": "address"
        },
        {
          "indexed": false,
          "internalType": "uint256",
          "name": "value",
          "type": "uint256"
        }
      ],
      "name": "Approval",
      "type": "event"
    },
    {
      "anonymous": false,
      "inputs": [
        {
          "indexed": true,
          "internalType": "address",
          "name": "from",
          "type": "address"
        },
        {
          "indexed": true,
          "internalType": "address",
          "name": "to",
          "type": "address"
        },
        {
          "indexed": false,
          "internalType": "uint256",
          "name": "value",
          "type": "uint256"
        }
      ],
      "name": "Transfer",
      "type": "event"
    },
    {
      "inputs": [
        {
          "internalType": "address",
          "name": "owner",
          "type": "address"
        },
        {
          "internalType": "address",
          "name": "spender",
          "type": "address"
        }
      ],
      "name": "allowance",
      "outputs": [
        {
          "internalType": "uint256",
          "name": "",
          "type": "uint256"
        }
      ],
      "stateMutability": "view",
      "type": "function"
    },
    {
      "inputs": [
        {
          "internalType": "address",
          "name": "spender",
          "type": "address"
        },
        {
          "internalType": "uint256",
          "name": "value",
          "type": "uint256"
        }
      ],
      "name": "approve",
      "outputs": [
        {
          "internalType": "bool",
          "name": "",
          "type": "bool"
        }
      ],
      "stateMutability": "nonpayable",
      "type": "function"
    },
    {
      "inputs": [
        {
          "internalType": "address",
          "name": "account",
          "type": "address"
        }
      ],
      "name": "balanceOf",
      "outputs": [
        {
          "internalType": "uint256",
          "name": "",
          "type": "uint256"
        }
      ],
      "stateMutability": "view",
      "type": "function"
    },
    {
      "inputs": [],
      "name": "decimals",
      "outputs": [
        {
          "internalType": "uint8",
          "name": "",
          "type": "uint8"
        }
      ],
      "stateMutability": "pure",
      "type": "function"
    },
    {
      "inputs": [],
      "name": "faucet",
      "outputs": [],
      "stateMutability": "nonpayable",
      "type": "function"
    },
    {
      "inputs": [
        {
          "internalType": "address",
          "name": "",
          "type": "address"
        }
      ],
      "name": "lastClaim",
      "outputs": [
        {
          "internalType": "uint256",
          "name": "",
          "type": "uint256"
        }
      ],
      "stateMutability": "view",
      "type": "function"
    },
    {
      "inputs": [
        {
          "internalType": "address",
          "name": "to",
          "type": "address"
        },
        {
          "internalType": "uint256",
          "name": "amount",
          "type": "uint256"
        }
      ],
      "name": "mint",
      "outputs": [],
      "stateMutability": "nonpayable",
      "type": "function"
    },
    {
      "inputs": [],
      "name": "name",
      "outputs": [
        {
          "internalType": "string",
          "name": "",
          "type": "string"
        }
      ],
      "stateMutability": "view",
      "type": "function"
    },
    {
      "inputs": [],
      "name": "symbol",
      "outputs": [
        {
          "internalType": "string",
          "name": "",
          "type": "string"
        }
      ],
      "stateMutability": "view",
      "type": "function"
    },
    {
      "inputs": [],
      "name": "totalSupply",
      "outputs": [
        {
          "internalType": "uint256",
          "name": "",
          "type": "uint256"
        }
      ],
      "stateMutability": "view",
      "type": "function"
    },
    {
      "inputs": [
        {
          "internalType": "address",
          "name": "to",
          "type": "address"
        },
        {
          "internalType": "uint256",
          "name": "value",
          "type": "uint256"
        }
      ],
      "name": "transfer",
      "outputs": [
        {
          "internalType": "bool",
          "name": "",
          "type": "bool"
        }
      ],
      "stateMutability": "nonpayable",
      "type": "function"
    },
    {
      "inputs": [
        {
          "internalType": "address",
          "name": "from",
          "type": "address"
        },
        {
          "internalType": "address",
          "name": "to",
          "type": "address"
        },
        {
          "internalType": "uint256",
          "name": "value",
          "type": "uint256"
        }
      ],
      "name": "transferFrom",
      "outputs": [
        {
          "internalType": "bool",
          "name": "",
          "type": "bool"
        }
      ],
      "stateMutability": "nonpayable",
      "type": "function"
    }
  ],
  "bytecode": "0x60806040523480156200001157600080fd5b5060405180604001604052806009815260200168135bd8dac81554d11560ba1b815250604051806040016040528060048152602001631554d11560e21b8152508160039081620000629190620002d0565b506004620000718282620002d0565b505050620000ab3362000089620000b160201b60201c565b6200009690600a620004b1565b620000a590620f4240620004c9565b620000b6565b620004f9565b600690565b6001600160a01b038216620000e65760405163ec442f0560e01b8152600060048201526024015b60405180910390fd5b620000f460008383620000f8565b5050565b6001600160a01b038316620001275780600260008282546200011b9190620004e3565b909155506200019b9050565b6001600160a01b038316600090815260208190526040902054818110156200017c5760405163391434e360e21b81526001600160a01b03851660048201526024810182905260448101839052606401620000dd565b6001600160a01b03841660009081526020819052604090209082900390555b6001600160a01b038216620001b957600280548290039055620001d8565b6001600160a01b03821660009081526020819052604090208054820190555b816001600160a01b0316836001600160a01b03167fddf252ad1be2c89b69c2b068fc378daa952ba7f163c4a11628f55a4df523b3ef836040516200021e91815260200190565b60405180910390a3505050565b634e487b7160e01b600052604160045260246000fd5b600181811c908216806200025657607f821691505b6020821081036200027757634e487b7160e01b600052602260045260246000fd5b50919050565b601f821115620002cb57600081815260208120601f850160051c81016020861015620002a65750805b601f850160051c820191505b81811015620002c757828155600101620002b2565b5050505b505050565b81516001600160401b03811115620002ec57620002ec6200022b565b6200030481620002fd845462000241565b846200027d565b602080601f8311600181146200033c5760008415620003235750858301515b600019600386901b1c1916600185901b178555620002c7565b600085815260208120601f198616915b828110156200036d578886015182559484019460019091019084016200034c565b50858210156200038c5787850151600019600388901b60f8161c191681555b5050505050600190811b01905550565b634e487b7160e01b600052601160045260246000fd5b600181815b80851115620003f3578160001904821115620003d757620003d76200039c565b80851615620003e557918102915b93841c9390800290620003b7565b509250929050565b6000826200040c57506001620004ab565b816200041b57506000620004ab565b81600181146200043457600281146200043f576200045f565b6001915050620004ab565b60ff8411156200045357620004536200039c565b50506001821b620004ab565b5060208310610133831016604e8410600b841016171562000484575081810a620004ab565b620004908383620003b2565b8060001904821115620004a757620004a76200039c565b0290505b92915050565b6000620004c260ff841683620003fb565b9392505050565b8082028115828204841417620004ab57620004ab6200039c565b80820180821115620004ab57620004ab6200039c565b61097580620005096000396000f3fe608060405234801561001057600080fd5b50600436106100b45760003560e01c80635c16e15e116100715780635c16e15e1461014357806370a082311461016357806395d89b411461018c578063a9059cbb14610194578063dd62ed3e146101a7578063de5f72fd146101e057600080fd5b806306fdde03146100b9578063095ea7b3146100d757806318160ddd146100fa57806323b872dd1461010c578063313ce5671461011f57806340c10f191461012e575b600080fd5b6100c16101e8565b6040516100ce91906106ad565b60405180910390f35b6100ea6100e5366004610717565b61027a565b60405190151581526020016100ce565b6002545b6040519081526020016100ce565b6100ea61011a366004610741565b610294565b604051600681526020016100ce565b61014161013c366004610717565b6102b8565b005b6100fe61015136600461077d565b60056020526000908152604090205481565b6100fe61017136600461077d565b6001600160a01b031660009081526020819052604090205490565b6100c16102c6565b6100ea6101a2366004610717565b6102d5565b6100fe6101b536600461079f565b6001600160a01b03918216600090815260016020908152604080832093909416825291909152205490565b6101416102e3565b6060600380546101f7906107d2565b80601f0160208091040260200160405190810160405280929190818152602001828054610223906107d2565b80156102705780601f1061024557610100808354040283529160200191610270565b820191906000526020600020905b81548152906001019060200180831161025357829003601f168201915b5050505050905090565b600033610288818585610388565b60019150505b92915050565b6000336102a285828561039a565b6102ad858585610419565b506001949350505050565b6102c28282610478565b5050565b6060600480546101f7906107d2565b600033610288818585610419565b336000908152600560205260409020546103009062015180610822565b42116103535760405162461bcd60e51b815260206004820152601b60248201527f43616e206f6e6c7920636c61696d206f6e63652070657220646179000000000060448201526064015b60405180910390fd5b336000818152600560205260409020429055610386906103756006600a610919565b610381906103e8610928565b610478565b565b61039583838360016104ae565b505050565b6001600160a01b03838116600090815260016020908152604080832093861683529290522054600019811015610413578181101561040457604051637dc7a0d960e11b81526001600160a01b0384166004820152602481018290526044810183905260640161034a565b610413848484840360006104ae565b50505050565b6001600160a01b03831661044357604051634b637e8f60e11b81526000600482015260240161034a565b6001600160a01b03821661046d5760405163ec442f0560e01b81526000600482015260240161034a565b610395838383610583565b6001600160a01b0382166104a25760405163ec442f0560e01b81526000600482015260240161034a565b6102c260008383610583565b6001600160a01b0384166104d85760405163e602df0560e01b81526000600482015260240161034a565b6001600160a01b03831661050257604051634a1406b160e11b81526000600482015260240161034a565b6001600160a01b038085166000908152600160209081526040808320938716835292905220829055801561041357826001600160a01b0316846001600160a01b03167f8c5be1e5ebec7d5bd14f71427d1e84f3dd0314c0f7b2291e5b200ac8c7c3b9258460405161057591815260200190565b60405180910390a350505050565b6001600160a01b0383166105ae5780600260008282546105a39190610822565b909155506106209050565b6001600160a01b038316600090815260208190526040902054818110156106015760405163391434e360e21b81526001600160a01b0385166004820152602481018290526044810183905260640161034a565b6001600160a01b03841660009081526020819052604090209082900390555b6001600160a01b03821661063c5760028054829003905561065b565b6001600160a01b03821660009081526020819052604090208054820190555b816001600160a01b0316836001600160a01b03167fddf252ad1be2c89b69c2b068fc378daa952ba7f163c4a11628f55a4df523b3ef836040516106a091815260200190565b60405180910390a3505050565b600060208083528351808285015260005b818110156106da578581018301518582016040015282016106be565b506000604082860101526040601f19601f8301168501019250505092915050565b80356001600160a01b038116811461071257600080fd5b919050565b6000806040838503121561072a57600080fd5b610733836106fb565b946020939093013593505050565b60008060006060848603121561075657600080fd5b61075f846106fb565b925061076d602085016106fb565b9150604084013590509250925092565b60006020828403121561078f57600080fd5b610798826106fb565b9392505050565b600080604083850312156107b257600080fd5b6107bb836106fb565b91506107c9602084016106fb565b90509250929050565b600181811c908216806107e657607f821691505b60208210810361080657634e487b7160e01b600052602260045260246000fd5b50919050565b634e487b7160e01b600052601160045260246000fd5b8082018082111561028e5761028e61080c565b600181815b808511156108705781600019048211156108565761085661080c565b8085161561086357918102915b93841c939080029061083a565b509250929050565b6000826108875750600161028e565b816108945750600061028e565b81600181146108aa57600281146108b4576108d0565b600191505061028e565b60ff8411156108c5576108c561080c565b50506001821b61028e565b5060208310610133831016604e8410600b84101617156108f3575081810a61028e565b6108fd8383610835565b80600019048211156109115761091161080c565b029392505050565b600061079860ff841683610878565b808202811582820484141761028e5761028e61080c56fea26469706673582212203640a472755958d280d28b223f29724a1bc19ae9e4c86acc782f08c83d6754bf64736f6c63430008140033",
  "linkReferences": {},
  "deployedLinkReferences": {}
}