{
  "_format": "hh-sol-artifact-1",
  "contractName": "SunChainInvestment",
  "sourceName": "contracts/SunChainInvestment.sol",
  "abi": [
    {
      "inputs": [
        {
          "internalType": "address",
          "name": "_usdtToken",
          "type": "address"
        },
        {
          "internalType": "address",
          "name": "_solarToken",
          "type": "address"
        }
      ],
      "stateMutability": "nonpayable",
      "type": "constructor"
    },
    {
      "inputs": [],
      "name": "EnforcedPause",
      "type": "error"
    },
    {
      "inputs": [],
      "name": "ExpectedPause",
      "type": "error"
    },
    {
      "inputs": [
        {
          "internalType": "address",
          "name": "owner",
          "type": "address"
        }
      ],
      "name": "OwnableInvalidOwner",
      "type": "error"
    },
    {
      "inputs": [
        {
          "internalType": "address",
          "name": "account",
          "type": "address"
        }
      ],
      "name": "OwnableUnauthorizedAccount",
      "type": "error"
    },
    {
      "inputs": [],
      "name": "ReentrancyGuardReentrantCall",
      "type": "error"
    },
    {
      "anonymous": false,
      "inputs": [
        {
          "indexed": true,
          "internalType": "uint256",
          "name": "investmentId",
          "type": "uint256"
        },
        {
          "indexed": true,
          "internalType": "uint256",
          "name": "projectId",
          "type": "uint256"
        },
        {
          "indexed": true,
          "internalType": "address",
          "name": "investor",
          "type": "address"
        },
        {
          "indexed": false,
          "internalType": "uint256",
          "name": "amount",
          "type": "uint256"
        }
      ],
      "name": "InvestmentMade",
      "type": "event"
    },
    {
      "anonymous": false,
      "inputs": [
        {
          "indexed": true,
          "internalType": "uint256",
          "name": "investmentId",
          "type": "uint256"
        },
        {
          "indexed": true,
          "internalType": "address",
          "name": "investor",
          "type": "address"
        },
        {
          "indexed": false,
          "internalType": "uint256",
          "name": "amount",
          "type": "uint256"
        }
      ],
      "name": "InvestmentWithdrawn",
      "type": "event"
    },
    {
      "anonymous": false,
      "inputs": [
        {
          "indexed": true,
          "internalType": "address",
          "name": "previousOwner",
          "type": "address"
        },
        {
          "indexed": true,
          "internalType": "address",
          "name": "newOwner",
          "type": "address"
        }
      ],
      "name": "OwnershipTransferred",
      "type": "event"
    },
    {
      "anonymous": false,
      "inputs": [
        {
          "indexed": false,
          "internalType": "address",
          "name": "account",
          "type": "address"
        }
      ],
      "name": "Paused",
      "type": "event"
    },
    {
      "anonymous": false,
      "inputs": [
        {
          "indexed": true,
          "internalType": "uint256",
          "name": "projectId",
          "type": "uint256"
        }
      ],
      "name": "ProjectActivated",
      "type": "event"
    },
    {
      "anonymous": false,
      "inputs": [
        {
          "indexed": true,
          "internalType": "uint256",
          "name": "projectId",
          "type": "uint256"
        },
        {
          "indexed": false,
          "internalType": "string",
          "name": "name",
          "type": "string"
        },
        {
          "indexed": false,
          "internalType": "uint256",
          "name": "targetAmount",
          "type": "uint256"
        }
      ],
      "name": "ProjectCreated",
      "type": "event"
    },
    {
      "anonymous": false,
      "inputs": [
        {
          "indexed": true,
          "internalType": "uint256",
          "name": "projectId",
          "type": "uint256"
        }
      ],
      "name": "ProjectDeactivated",
      "type": "event"
    },
    {
      "anonymous": false,
      "inputs": [
        {
          "indexed": true,
          "internalType": "uint256",
          "name": "projectId",
          "type": "uint256"
        },
        {
          "indexed": false,
          "internalType": "uint256",
          "name": "totalRaised",
          "type": "uint256"
        }
      ],
      "name": "ProjectFunded",
      "type": "event"
    },
    {
      "anonymous": false,
      "inputs": [
        {
          "indexed": true,
          "internalType": "uint256",
          "name": "investmentId",
          "type": "uint256"
        },
        {
          "indexed": true,
          "internalType": "address",
          "name": "investor",
          "type": "address"
        },
        {
          "indexed": false,
          "internalType": "uint256",
          "name": "amount",
          "type": "uint256"
        }
      ],
      "name": "RewardsClaimed",
      "type": "event"
    },
    {
      "anonymous": false,
      "inputs": [
        {
          "indexed": false,
          "internalType": "address",
          "name": "account",
          "type": "address"
        }
      ],
      "name": "Unpaused",
      "type": "event"
    },
    {
      "inputs": [],
      "name": "FEE_DENOMINATOR",
      "outputs": [
        {
          "internalType": "uint256",
          "name": "",
          "type": "uint256"
        }
      ],
      "stateMutability": "view",
      "type": "function"
    },
    {
      "inputs": [],
      "name": "MIN_INVESTMENT",
      "outputs": [
        {
          "internalType": "uint256",
          "name": "",
          "type": "uint256"
        }
      ],
      "stateMutability": "view",
      "type": "function"
    },
    {
      "inputs": [],
      "name": "PLATFORM_FEE",
      "outputs": [
        {
          "internalType": "uint256",
          "name": "",
          "type": "uint256"
        }
      ],
      "stateMutability": "view",
      "type": "function"
    },
    {
      "inputs": [
        {
          "internalType": "uint256",
          "name": "projectId",
          "type": "uint256"
        }
      ],
      "name": "activateProject",
      "outputs": [],
      "stateMutability": "nonpayable",
      "type": "function"
    },
    {
      "inputs": [
        {
          "internalType": "uint256",
          "name": "investmentId",
          "type": "uint256"
        }
      ],
      "name": "calculateRewards",
      "outputs": [
        {
          "internalType": "uint256",
          "name": "",
          "type": "uint256"
        }
      ],
      "stateMutability": "view",
      "type": "function"
    },
    {
      "inputs": [
        {
          "internalType": "uint256",
          "name": "investmentId",
          "type": "uint256"
        }
      ],
      "name": "claimRewards",
      "outputs": [],
      "stateMutability": "nonpayable",
      "type": "function"
    },
    {
      "inputs": [
        {
          "internalType": "string",
          "name": "name",
          "type": "string"
        },
        {
          "internalType": "uint256",
          "name": "targetAmount",
          "type": "uint256"
        },
        {
          "internalType": "uint256",
          "name": "apy",
          "type": "uint256"
        },
        {
          "internalType": "uint256",
          "name": "capacity",
          "type": "uint256"
        },
        {
          "internalType": "uint256",
          "name": "duration",
          "type": "uint256"
        },
        {
          "internalType": "address",
          "name": "beneficiary",
          "type": "address"
        }
      ],
      "name": "createProject",
      "outputs": [],
      "stateMutability": "nonpayable",
      "type": "function"
    },
    {
      "inputs": [
        {
          "internalType": "uint256",
          "name": "projectId",
          "type": "uint256"
        }
      ],
      "name": "deactivateProject",
      "outputs": [],
      "stateMutability": "nonpayable",
      "type": "function"
    },
    {
      "inputs": [
        {
          "internalType": "address",
          "name": "token",
          "type": "address"
        },
        {
          "internalType": "uint256",
          "name": "amount",
          "type": "uint256"
        }
      ],
      "name": "emergencyWithdraw",
      "outputs": [],
      "stateMutability": "nonpayable",
      "type": "function"
    },
    {
      "inputs": [],
      "name": "feeCollector",
      "outputs": [
        {
          "internalType": "address",
          "name": "",
          "type": "address"
        }
      ],
      "stateMutability": "view",
      "type": "function"
    },
    {
      "inputs": [],
      "name": "getAllProjects",
      "outputs": [
        {
          "components": [
            {
              "internalType": "string",
              "name": "name",
              "type": "string"
            },
            {
              "internalType": "uint256",
              "name": "targetAmount",
              "type": "uint256"
            },
            {
              "internalType": "uint256",
              "name": "raisedAmount",
              "type": "uint256"
            },
            {
              "internalType": "uint256",
              "name": "apy",
              "type": "uint256"
            },
            {
              "internalType": "uint256",
              "name": "capacity",
              "type": "uint256"
            },
            {
              "internalType": "uint256",
              "name": "duration",
              "type": "uint256"
            },
            {
              "internalType": "uint256",
              "name": "startTime",
              "type": "uint256"
            },
            {
              "internalType": "address",
              "name": "beneficiary",
              "type": "address"
            },
            {
              "internalType": "bool",
              "name": "isActive",
              "type": "bool"
            },
            {
              "internalType": "bool",
              "name": "isFunded",
              "type": "bool"
            }
          ],
          "internalType": "struct SunChainInvestment.Project[]",
          "name": "",
          "type": "tuple[]"
        }
      ],
      "stateMutability": "view",
      "type": "function"
    },
    {
      "inputs": [
        {
          "internalType": "uint256",
          "name": "investmentId",
          "type": "uint256"
        }
      ],
      "name": "getInvestment",
      "outputs": [
        {
          "internalType": "uint256",
          "name": "projectId",
          "type": "uint256"
        },
        {
          "internalType": "uint256",
          "name": "amount",
          "type": "uint256"
        },
        {
          "internalType": "uint256",
          "name": "timestamp",
          "type": "uint256"
        },
        {
          "internalType": "uint256",
          "name": "rewardsClaimed",
          "type": "uint256"
        },
        {
          "internalType": "bool",
          "name": "isActive",
          "type": "bool"
        },
        {
          "internalType": "uint256",
          "name": "pendingRewards",
          "type": "uint256"
        }
      ],
      "stateMutability": "view",
      "type": "function"
    },
    {
      "inputs": [
        {
          "internalType": "uint256",
          "name": "projectId",
          "type": "uint256"
        }
      ],
      "name": "getProject",
      "outputs": [
        {
          "internalType": "string",
          "name": "name",
          "type": "string"
        },
        {
          "internalType": "uint256",
          "name": "targetAmount",
          "type": "uint256"
        },
        {
          "internalType": "uint256",
          "name": "raisedAmount",
          "type": "uint256"
        },
        {
          "internalType": "uint256",
          "name": "apy",
          "type": "uint256"
        },
        {
          "internalType": "uint256",
          "name": "capacity",
          "type": "uint256"
        },
        {
          "internalType": "uint256",
          "name": "duration",
          "type": "uint256"
        },
        {
          "internalType": "uint256",
          "name": "startTime",
          "type": "uint256"
        },
        {
          "internalType": "address",
          "name": "beneficiary",
          "type": "address"
        },
        {
          "internalType": "bool",
          "name": "isActive",
          "type": "bool"
        },
        {
          "internalType": "bool",
          "name": "isFunded",
          "type": "bool"
        }
      ],
      "stateMutability": "view",
      "type": "function"
    },
    {
      "inputs": [
        {
          "internalType": "address",
          "name": "user",
          "type": "address"
        }
      ],
      "name": "getUserInvestments",
      "outputs": [
        {
          "internalType": "uint256[]",
          "name": "",
          "type": "uint256[]"
        }
      ],
      "stateMutability": "view",
      "type": "function"
    },
    {
      "inputs": [
        {
          "internalType": "uint256",
          "name": "projectId",
          "type": "uint256"
        },
        {
          "internalType": "uint256",
          "name": "amount",
          "type": "uint256"
        }
      ],
      "name": "invest",
      "outputs": [],
      "stateMutability": "nonpayable",
      "type": "function"
    },
    {
      "inputs": [],
      "name": "investmentCount",
      "outputs": [
        {
          "internalType": "uint256",
          "name": "",
          "type": "uint256"
        }
      ],
      "stateMutability": "view",
      "type": "function"
    },
    {
      "inputs": [
        {
          "internalType": "uint256",
          "name": "",
          "type": "uint256"
        }
      ],
      "name": "investments",
      "outputs": [
        {
          "internalType": "uint256",
          "name": "projectId",
          "type": "uint256"
        },
        {
          "internalType": "uint256",
          "name": "amount",
          "type": "uint256"
        },
        {
          "internalType": "uint256",
          "name": "timestamp",
          "type": "uint256"
        },
        {
          "internalType": "uint256",
          "name": "rewardsClaimed",
          "type": "uint256"
        },
        {
          "internalType": "bool",
          "name": "isActive",
          "type": "bool"
        }
      ],
      "stateMutability": "view",
      "type": "function"
    },
    {
      "inputs": [],
      "name": "owner",
      "outputs": [
        {
          "internalType": "address",
          "name": "",
          "type": "address"
        }
      ],
      "stateMutability": "view",
      "type": "function"
    },
    {
      "inputs": [],
      "name": "pause",
      "outputs": [],
      "stateMutability": "nonpayable",
      "type": "function"
    },
    {
      "inputs": [],
      "name": "paused",
      "outputs": [
        {
          "internalType": "bool",
          "name": "",
          "type": "bool"
        }
      ],
      "stateMutability": "view",
      "type": "function"
    },
    {
      "inputs": [],
      "name": "projectCount",
      "outputs": [
        {
          "internalType": "uint256",
          "name": "",
          "type": "uint256"
        }
      ],
      "stateMutability": "view",
      "type": "function"
    },
    {
      "inputs": [
        {
          "internalType": "uint256",
          "name": "",
          "type": "uint256"
        },
        {
          "internalType": "address",
          "name": "",
          "type": "address"
        },
        {
          "internalType": "uint256",
          "name": "",
          "type": "uint256"
        }
      ],
      "name": "projectInvestors",
      "outputs": [
        {
          "internalType": "uint256",
          "name": "",
          "type": "uint256"
        }
      ],
      "stateMutability": "view",
      "type": "function"
    },
    {
      "inputs": [
        {
          "internalType": "uint256",
          "name": "",
          "type": "uint256"
        }
      ],
      "name": "projects",
      "outputs": [
        {
          "internalType": "string",
          "name": "name",
          "type": "string"
        },
        {
          "internalType": "uint256",
          "name": "targetAmount",
          "type": "uint256"
        },
        {
          "internalType": "uint256",
          "name": "raisedAmount",
          "type": "uint256"
        },
        {
          "internalType": "uint256",
          "name": "apy",
          "type": "uint256"
        },
        {
          "internalType": "uint256",
          "name": "capacity",
          "type": "uint256"
        },
        {
          "internalType": "uint256",
          "name": "duration",
          "type": "uint256"
        },
        {
          "internalType": "uint256",
          "name": "startTime",
          "type": "uint256"
        },
        {
          "internalType": "address",
          "name": "beneficiary",
          "type": "address"
        },
        {
          "internalType": "bool",
          "name": "isActive",
          "type": "bool"
        },
        {
          "internalType": "bool",
          "name": "isFunded",
          "type": "bool"
        }
      ],
      "stateMutability": "view",
      "type": "function"
    },
    {
      "inputs": [],
      "name": "renounceOwnership",
      "outputs": [],
      "stateMutability": "nonpayable",
      "type": "function"
    },
    {
      "inputs": [
        {
          "internalType": "address",
          "name": "_feeCollector",
          "type": "address"
        }
      ],
      "name": "setFeeCollector",
      "outputs": [],
      "stateMutability": "nonpayable",
      "type": "function"
    },
    {
      "inputs": [],
      "name": "solarToken",
      "outputs": [
        {
          "internalType": "contract ISolarToken",
          "name": "",
          "type": "address"
        }
      ],
      "stateMutability": "view",
      "type": "function"
    },
    {
      "inputs": [
        {
          "internalType": "address",
          "name": "newOwner",
          "type": "address"
        }
      ],
      "name": "transferOwnership",
      "outputs": [],
      "stateMutability": "nonpayable",
      "type": "function"
    },
    {
      "inputs": [],
      "name": "unpause",
      "outputs": [],
      "stateMutability": "nonpayable",
      "type": "function"
    },
    {
      "inputs": [],
      "name": "usdtToken",
      "outputs": [
        {
          "internalType": "contract IERC20",
          "name": "",
          "type": "address"
        }
      ],
      "stateMutability": "view",
      "type": "function"
    },
    {
      "inputs": [
        {
          "internalType": "address",
          "name": "",
          "type": "address"
        },
        {
          "internalType": "uint256",
          "name": "",
          "type": "uint256"
        }
      ],
      "name": "userInvestments",
      "outputs": [
        {
          "internalType": "uint256",
          "name": "",
          "type": "uint256"
        }
      ],
      "stateMutability": "view",
      "type": "function"
    },
    {
      "inputs": [
        {
          "internalType": "uint256",
          "name": "investmentId",
          "type": "uint256"
        }
      ],
      "name": "withdrawInvestment",
      "outputs": [],
      "stateMutability": "nonpayable",
      "type": "function"
    }
  ],
  "bytecode": "0x60806040523480156200001157600080fd5b5060405162002577380380620025778339810160408190526200003491620001d5565b33806200005c57604051631e4fbdf760e01b8152600060048201526024015b60405180910390fd5b620000678162000168565b50600180556001600160a01b038216620000c45760405162461bcd60e51b815260206004820152601460248201527f496e76616c696420555344542061646472657373000000000000000000000000604482015260640162000053565b6001600160a01b0381166200011c5760405162461bcd60e51b815260206004820152601a60248201527f496e76616c696420536f6c6172546f6b656e2061646472657373000000000000604482015260640162000053565b600280546001600160a01b0393841661010002610100600160a81b031990911617905560038054919092166001600160a01b031991821617909155600a8054909116331790556200020d565b600080546001600160a01b038381166001600160a01b0319831681178455604051919092169283917f8be0079c531659141344cd1fd0a4f28419497f9722a3daafe3b4186f6b6457e09190a35050565b80516001600160a01b0381168114620001d057600080fd5b919050565b60008060408385031215620001e957600080fd5b620001f483620001b8565b91506200020460208401620001b8565b90509250929050565b61235a806200021d6000396000f3fe608060405234801561001057600080fd5b50600436106101e55760003560e01c80638456cb591161010f578063c52c5c88116100a2578063dfd66bef11610071578063dfd66bef14610420578063f0f3f2c814610433578063f2fde38b14610446578063fd345c8a1461045957600080fd5b8063c52c5c88146103d1578063d3ea4350146103f1578063d73792a914610404578063d87aa6431461040d57600080fd5b806395ccea67116100de57806395ccea6714610380578063a42dce8014610393578063a98ad46c146103a6578063c415b95c146103be57600080fd5b80638456cb591461032d5780638da5cb5b146103355780639244adcd1461035a57806393b557901461036d57600080fd5b80633f4ba83a116101875780634ef8ff33116101565780634ef8ff33146102ef5780635c975abb146102fa578063715018a61461031057806380d038291461031857600080fd5b80633f4ba83a146102ae57806341544a82146102b6578063436e6958146102c95780634433a9d6146102dc57600080fd5b806322ae634f116101c357806322ae634f14610244578063246b0e5c1461028657806334fbc9a11461029d57806336fbad26146102a557600080fd5b80630962ef79146101ea578063107046bd146101ff5780632037fcbf14610231575b600080fd5b6101fd6101f8366004611cfb565b6104c3565b005b61021261020d366004611cfb565b6106cb565b6040516102289a99989796959493929190611d5a565b60405180910390f35b6101fd61023f366004611cfb565b6107b5565b610257610252366004611cfb565b610ac7565b6040805196875260208701959095529385019290925260608401521515608083015260a082015260c001610228565b61028f60065481565b604051908152602001610228565b61028f60c881565b61028f60045481565b6101fd610b43565b6101fd6102c4366004611cfb565b610b55565b6101fd6102d7366004611cfb565b610c2a565b61028f6102ea366004611ddd565b610cfa565b61028f6305f5e10081565b60025460ff166040519015158152602001610228565b6101fd610d38565b610320610d4a565b6040516102289190611e12565b6101fd610f6d565b6000546001600160a01b03165b6040516001600160a01b039091168152602001610228565b61028f610368366004611ee9565b610f7d565b6101fd61037b366004611f29565b610fae565b6101fd61038e366004611ee9565b6111ac565b6101fd6103a1366004612010565b61129e565b6002546103429061010090046001600160a01b031681565b600a54610342906001600160a01b031681565b6103e46103df366004612010565b611310565b6040516102289190612032565b61028f6103ff366004611cfb565b61137c565b61028f61271081565b6101fd61041b366004612076565b611437565b600354610342906001600160a01b031681565b610212610441366004611cfb565b6119fc565b6101fd610454366004612010565b611b43565b610499610467366004611cfb565b600760205260009081526040902080546001820154600283015460038401546004909401549293919290919060ff1685565b6040805195865260208601949094529284019190915260608301521515608082015260a001610228565b6104cb611b7e565b6000811180156104dd57506006548111155b6105025760405162461bcd60e51b81526004016104f990612098565b60405180910390fd5b6000818152600760205260409020600481015460ff1661055c5760405162461bcd60e51b8152602060048201526015602482015274496e766573746d656e74206e6f742061637469766560581b60448201526064016104f9565b60006105678361137c565b9050600081116105af5760405162461bcd60e51b81526020600482015260136024820152724e6f207265776172647320746f20636c61696d60681b60448201526064016104f9565b808260030160008282546105c391906120dd565b909155505060025460405163a9059cbb60e01b8152336004820152602481018390526101009091046001600160a01b03169063a9059cbb906044016020604051808303816000875af115801561061d573d6000803e3d6000fd5b505050506040513d601f19601f8201168201806040525081019061064191906120f6565b6106865760405162461bcd60e51b815260206004820152601660248201527514995dd85c99081d1c985b9cd9995c8819985a5b195960521b60448201526064016104f9565b604051818152339084907f3300bdb359cfb956935bca32e9db727413eab1ca84341f2e36caea85bb7969689060200160405180910390a350506106c860018055565b50565b6005602052600090815260409020805481906106e690612118565b80601f016020809104026020016040519081016040528092919081815260200182805461071290612118565b801561075f5780601f106107345761010080835404028352916020019161075f565b820191906000526020600020905b81548152906001019060200180831161074257829003601f168201915b505050600184015460028501546003860154600487015460058801546006890154600790990154979894979396509194509290916001600160a01b0381169060ff600160a01b8204811691600160a81b9004168a565b6107bd611b7e565b6000811180156107cf57506006548111155b6107eb5760405162461bcd60e51b81526004016104f990612098565b6000818152600760205260409020600481015460ff166108415760405162461bcd60e51b815260206004820152601160248201527020b63932b0b23c903bb4ba34323930bbb760791b60448201526064016104f9565b80546000908152600560208190526040822090810154909190610867906201518061214c565b836002015461087691906120dd565b9050804210156108c05760405162461bcd60e51b8152602060048201526015602482015274131bd8dac81c195c9a5bd9081b9bdd08195b991959605a1b60448201526064016104f9565b60006108cb8561137c565b905080156109aa57808460030160008282546108e791906120dd565b909155505060025460405163a9059cbb60e01b8152336004820152602481018390526101009091046001600160a01b03169063a9059cbb906044016020604051808303816000875af1158015610941573d6000803e3d6000fd5b505050506040513d601f19601f8201168201806040525081019061096591906120f6565b6109aa5760405162461bcd60e51b815260206004820152601660248201527514995dd85c99081d1c985b9cd9995c8819985a5b195960521b60448201526064016104f9565b60018401546004808601805460ff1916905560025460405163a9059cbb60e01b815233928101929092526024820183905261010090046001600160a01b03169063a9059cbb906044016020604051808303816000875af1158015610a12573d6000803e3d6000fd5b505050506040513d601f19601f82011682018060405250810190610a3691906120f6565b610a825760405162461bcd60e51b815260206004820152601960248201527f5072696e636970616c207472616e73666572206661696c65640000000000000060448201526064016104f9565b604051818152339087907f05ca455a01213f8fad66148acbe3cdab7e54cde2914c9ec51f091a748ae829ef9060200160405180910390a350505050506106c860018055565b600080600080600080600087118015610ae257506006548711155b610afe5760405162461bcd60e51b81526004016104f990612098565b60008781526007602052604090208054600182015460028301546003840154600485015460ff16610b2e8d61137c565b949d939c50919a509850965090945092505050565b610b4b611ba8565b610b53611bd5565b565b610b5d611ba8565b600081118015610b6f57506004548111155b610b8b5760405162461bcd60e51b81526004016104f990612163565b60008181526005602052604090206007810154600160a01b900460ff1615610be65760405162461bcd60e51b815260206004820152600e60248201526d416c72656164792061637469766560901b60448201526064016104f9565b60078101805460ff60a01b1916600160a01b17905560405182907fa24f98fafda171640bd6bc2dfff773d30beccd904d6c386e658a1c79f9e7666390600090a25050565b610c32611ba8565b600081118015610c4457506004548111155b610c605760405162461bcd60e51b81526004016104f990612163565b60008181526005602052604090206007810154600160a01b900460ff16610cbc5760405162461bcd60e51b815260206004820152601060248201526f416c726561647920696e61637469766560801b60448201526064016104f9565b60078101805460ff60a01b1916905560405182907f32619b1c1bac9b073234f8ace80ba5659d4a461276966921ca62cc24a32c7ff390600090a25050565b60096020528260005260406000206020528160005260406000208181548110610d2257600080fd5b9060005260206000200160009250925050505481565b610d40611ba8565b610b536000611c27565b6060600060045467ffffffffffffffff811115610d6957610d69611f13565b604051908082528060200260200182016040528015610dfd57816020015b610dea6040518061014001604052806060815260200160008152602001600081526020016000815260200160008152602001600081526020016000815260200160006001600160a01b031681526020016000151581526020016000151581525090565b815260200190600190039081610d875790505b50905060015b6004548111610f67576000818152600560205260409081902081516101408101909252805482908290610e3590612118565b80601f0160208091040260200160405190810160405280929190818152602001828054610e6190612118565b8015610eae5780601f10610e8357610100808354040283529160200191610eae565b820191906000526020600020905b815481529060010190602001808311610e9157829003601f168201915b50505091835250506001828101546020830152600283015460408301526003830154606083015260048301546080830152600583015460a0830152600683015460c08301526007909201546001600160a01b03811660e083015260ff600160a01b820481161515610100840152600160a81b909104161515610120909101528390610f39908461218f565b81518110610f4957610f496121a2565b60200260200101819052508080610f5f906121b8565b915050610e03565b50919050565b610f75611ba8565b610b53611c77565b60086020528160005260406000208181548110610f9957600080fd5b90600052602060002001600091509150505481565b610fb6611ba8565b6000865111610ff75760405162461bcd60e51b815260206004820152600d60248201526c13985b59481c995c5d5a5c9959609a1b60448201526064016104f9565b6000851161103c5760405162461bcd60e51b81526020600482015260126024820152710546172676574206d757374206265203e20360741b60448201526064016104f9565b60008411801561104d575060648411155b61108e5760405162461bcd60e51b8152602060048201526012602482015271415059206d75737420626520312d3130302560701b60448201526064016104f9565b6001600160a01b0381166110da5760405162461bcd60e51b8152602060048201526013602482015272496e76616c69642062656e656669636961727960681b60448201526064016104f9565b600480549060006110ea836121b8565b909155505060045460009081526005602052604090208061110b8882612220565b5061111986620f424061214c565b600182018190556003820186905560048083018690556005830185905560078301805442600686015560ff60a81b196001600160a81b03199091166001600160a01b03871617600160a01b171690555460405190917f6245d01eb0db8df9242165c3ee1e2324367f93303d7b8f6a86e38a8767e643ae9161119b918b916122e0565b60405180910390a250505050505050565b6111b4611ba8565b6111bc611cb4565b816001600160a01b031663a9059cbb6111dd6000546001600160a01b031690565b6040516001600160e01b031960e084901b1681526001600160a01b039091166004820152602481018490526044016020604051808303816000875af115801561122a573d6000803e3d6000fd5b505050506040513d601f19601f8201168201806040525081019061124e91906120f6565b61129a5760405162461bcd60e51b815260206004820152601960248201527f456d657267656e6379207769746864726177206661696c65640000000000000060448201526064016104f9565b5050565b6112a6611ba8565b6001600160a01b0381166112ee5760405162461bcd60e51b815260206004820152600f60248201526e496e76616c6964206164647265737360881b60448201526064016104f9565b600a80546001600160a01b0319166001600160a01b0392909216919091179055565b6001600160a01b03811660009081526008602090815260409182902080548351818402810184019094528084526060939283018282801561137057602002820191906000526020600020905b81548152602001906001019080831161135c575b50505050509050919050565b6000818152600760205260408120600481015460ff1661139f5750600092915050565b8054600090815260056020526040812060028301549091906113c1904261218f565b905060006113d26201518083612302565b90506000618e9482856003015487600101546113ee919061214c565b6113f8919061214c565b6114029190612302565b9050846003015481111561142a57600385015461141f908261218f565b979650505050505050565b5060009695505050505050565b61143f611b7e565b611447611cd7565b60008211801561145957506004548211155b6114755760405162461bcd60e51b81526004016104f990612163565b6305f5e1008110156114c95760405162461bcd60e51b815260206004820152601860248201527f42656c6f77206d696e696d756d20696e766573746d656e74000000000000000060448201526064016104f9565b60008281526005602052604090206007810154600160a01b900460ff166115275760405162461bcd60e51b815260206004820152601260248201527150726f6a656374206e6f742061637469766560701b60448201526064016104f9565b6007810154600160a81b900460ff161561157c5760405162461bcd60e51b8152602060048201526016602482015275141c9bda9958dd08185b1c9958591e48199d5b99195960521b60448201526064016104f9565b806001015482826002015461159191906120dd565b11156115d05760405162461bcd60e51b815260206004820152600e60248201526d115e18d959591cc81d185c99d95d60921b60448201526064016104f9565b6002546040516323b872dd60e01b8152336004820152306024820152604481018490526101009091046001600160a01b0316906323b872dd906064016020604051808303816000875af115801561162b573d6000803e3d6000fd5b505050506040513d601f19601f8201168201806040525081019061164f91906120f6565b61168d5760405162461bcd60e51b815260206004820152600f60248201526e151c985b9cd9995c8819985a5b1959608a1b60448201526064016104f9565b600061271061169d60c88561214c565b6116a79190612302565b905060006116b5828561218f565b9050811561177d57600254600a5460405163a9059cbb60e01b81526001600160a01b03918216600482015260248101859052610100909204169063a9059cbb906044016020604051808303816000875af1158015611717573d6000803e3d6000fd5b505050506040513d601f19601f8201168201806040525081019061173b91906120f6565b61177d5760405162461bcd60e51b8152602060048201526013602482015272119959481d1c985b9cd9995c8819985a5b1959606a1b60448201526064016104f9565b8083600201600082825461179191906120dd565b9091555050600680549060006117a6836121b8565b909155505060068054600090815260076020908152604080832089815560018082018790554260028301556004808301805460ff1916831790553380875260088652848720885481548086018355918952878920909101558c8752600986528487208188528652848720975488549384018955978752949095200194909455600354905163fdf0370f60e01b815292830191909152602482018490526001600160a01b03169063fdf0370f90604401600060405180830381600087803b15801561186f57600080fd5b505af1925050508015611880575060015b50600654604051838152339188917f0b5c532717e370bf5dc113b6bd2ad1a18df9d621819fe0e7407ce89c2835759d9060200160405180910390a483600101548460020154106119ef57600784018054600160a81b60ff60a81b19821617909155600280549086015460405163a9059cbb60e01b81526001600160a01b03938416600482015260248101919091526101009091049091169063a9059cbb906044016020604051808303816000875af1158015611940573d6000803e3d6000fd5b505050506040513d601f19601f8201168201806040525081019061196491906120f6565b6119b05760405162461bcd60e51b815260206004820152601b60248201527f42656e6566696369617279207472616e73666572206661696c6564000000000060448201526064016104f9565b857f26130d0cd3f6aa101d05e4a4f2ff016fd5b934363d17bdd03ff5dc03ec5934a985600201546040516119e691815260200190565b60405180910390a25b5050505061129a60018055565b60606000806000806000806000806000808b118015611a1d57506004548b11155b611a395760405162461bcd60e51b81526004016104f990612163565b60008b815260056020819052604090912060018101546002820154600383015460048401549484015460068501546007860154865496978897909392916001600160a01b0381169160ff600160a01b8304811692600160a81b900416908a90611aa190612118565b80601f0160208091040260200160405190810160405280929190818152602001828054611acd90612118565b8015611b1a5780601f10611aef57610100808354040283529160200191611b1a565b820191906000526020600020905b815481529060010190602001808311611afd57829003601f168201915b505050505099509a509a509a509a509a509a509a509a509a509a50509193959799509193959799565b611b4b611ba8565b6001600160a01b038116611b7557604051631e4fbdf760e01b8152600060048201526024016104f9565b6106c881611c27565b600260015403611ba157604051633ee5aeb560e01b815260040160405180910390fd5b6002600155565b6000546001600160a01b03163314610b535760405163118cdaa760e01b81523360048201526024016104f9565b611bdd611cb4565b6002805460ff191690557f5db9ee0a495bf2e6ff9c91a7834c1ba4fdd244a5e8aa4e537bd38aeae4b073aa335b6040516001600160a01b03909116815260200160405180910390a1565b600080546001600160a01b038381166001600160a01b0319831681178455604051919092169283917f8be0079c531659141344cd1fd0a4f28419497f9722a3daafe3b4186f6b6457e09190a35050565b611c7f611cd7565b6002805460ff191660011790557f62e78cea01bee320cd4e420270b5ea74000d11b0c9f74754ebdbfc544b05a258611c0a3390565b60025460ff16610b5357604051638dfc202b60e01b815260040160405180910390fd5b60025460ff1615610b535760405163d93c066560e01b815260040160405180910390fd5b600060208284031215611d0d57600080fd5b5035919050565b6000815180845260005b81811015611d3a57602081850181015186830182015201611d1e565b506000602082860101526020601f19601f83011685010191505092915050565b6000610140808352611d6e8184018e611d14565b602084019c909c52505060408101989098526060880196909652608087019490945260a086019290925260c08501526001600160a01b031660e08401521515610100830152151561012090910152919050565b80356001600160a01b0381168114611dd857600080fd5b919050565b600080600060608486031215611df257600080fd5b83359250611e0260208501611dc1565b9150604084013590509250925092565b60006020808301818452808551808352604092508286019150828160051b87010184880160005b83811015611edb57603f1989840301855281516101408151818652611e6082870182611d14565b838b0151878c0152898401518a880152606080850151908801526080808501519088015260a0808501519088015260c0808501519088015260e0808501516001600160a01b03169088015261010080850151151590880152610120938401511515939096019290925250509386019390860190600101611e39565b509098975050505050505050565b60008060408385031215611efc57600080fd5b611f0583611dc1565b946020939093013593505050565b634e487b7160e01b600052604160045260246000fd5b60008060008060008060c08789031215611f4257600080fd5b863567ffffffffffffffff80821115611f5a57600080fd5b818901915089601f830112611f6e57600080fd5b813581811115611f8057611f80611f13565b604051601f8201601f19908116603f01168101908382118183101715611fa857611fa8611f13565b816040528281528c6020848701011115611fc157600080fd5b82602086016020830137600060208483010152809a5050505050506020870135945060408701359350606087013592506080870135915061200460a08801611dc1565b90509295509295509295565b60006020828403121561202257600080fd5b61202b82611dc1565b9392505050565b6020808252825182820181905260009190848201906040850190845b8181101561206a5783518352928401929184019160010161204e565b50909695505050505050565b6000806040838503121561208957600080fd5b50508035926020909101359150565b602080825260159082015274125b9d985b1a59081a5b9d995cdd1b595b9d081251605a1b604082015260600190565b634e487b7160e01b600052601160045260246000fd5b808201808211156120f0576120f06120c7565b92915050565b60006020828403121561210857600080fd5b8151801515811461202b57600080fd5b600181811c9082168061212c57607f821691505b602082108103610f6757634e487b7160e01b600052602260045260246000fd5b80820281158282048414176120f0576120f06120c7565b602080825260129082015271125b9d985b1a59081c1c9bda9958dd08125160721b604082015260600190565b818103818111156120f0576120f06120c7565b634e487b7160e01b600052603260045260246000fd5b6000600182016121ca576121ca6120c7565b5060010190565b601f82111561221b57600081815260208120601f850160051c810160208610156121f85750805b601f850160051c820191505b8181101561221757828155600101612204565b5050505b505050565b815167ffffffffffffffff81111561223a5761223a611f13565b61224e816122488454612118565b846121d1565b602080601f831160018114612283576000841561226b5750858301515b600019600386901b1c1916600185901b178555612217565b600085815260208120601f198616915b828110156122b257888601518255948401946001909101908401612293565b50858210156122d05787850151600019600388901b60f8161c191681555b5050505050600190811b01905550565b6040815260006122f36040830185611d14565b90508260208301529392505050565b60008261231f57634e487b7160e01b600052601260045260246000fd5b50049056fea26469706673582212205fdd10241cf27297e47662b5eed7aa80543756b3e95f0583345ae14764034dd864736f6c63430008140033",
  "linkReferences": {},
  "deployedLinkReferences": {}
}