{
  "_format": "hh-sol-artifact-1",
  "contractName": "SolarOracle",
  "sourceName": "contracts/SolarOracle.sol",
  "abi": [
    {
      "inputs": [],
      "stateMutability": "nonpayable",
      "type": "constructor"
    },
    {
      "inputs": [
        {
          "internalType": "address",
          "name": "owner",
          "type": "address"
        }
      ],
      "name": "OwnableInvalidOwner",
      "type": "error"
    },
    {
      "inputs": [
        {
          "internalType": "address",
          "name": "account",
          "type": "address"
        }
      ],
      "name": "OwnableUnauthorizedAccount",
      "type": "error"
    },
    {
      "anonymous": false,
      "inputs": [
        {
          "indexed": true,
          "internalType": "uint256",
          "name": "projectId",
          "type": "uint256"
        },
        {
          "indexed": false,
          "internalType": "uint256",
          "name": "month",
          "type": "uint256"
        }
      ],
      "name": "DataVerified",
      "type": "event"
    },
    {
      "anonymous": false,
      "inputs": [
        {
          "indexed": true,
          "internalType": "uint256",
          "name": "projectId",
          "type": "uint256"
        },
        {
          "indexed": false,
          "internalType": "uint256",
          "name": "month",
          "type": "uint256"
        },
        {
          "indexed": false,
          "internalType": "uint256",
          "name": "energyProduced",
          "type": "uint256"
        }
      ],
      "name": "EnergyDataSubmitted",
      "type": "event"
    },
    {
      "anonymous": false,
      "inputs": [
        {
          "indexed": true,
          "internalType": "address",
          "name": "previousOwner",
          "type": "address"
        },
        {
          "indexed": true,
          "internalType": "address",
          "name": "newOwner",
          "type": "address"
        }
      ],
      "name": "OwnershipTransferred",
      "type": "event"
    },
    {
      "anonymous": false,
      "inputs": [
        {
          "indexed": true,
          "internalType": "address",
          "name": "provider",
          "type": "address"
        }
      ],
      "name": "ProviderAuthorized",
      "type": "event"
    },
    {
      "inputs": [
        {
          "internalType": "address",
          "name": "provider",
          "type": "address"
        }
      ],
      "name": "authorizeProvider",
      "outputs": [],
      "stateMutability": "nonpayable",
      "type": "function"
    },
    {
      "inputs": [
        {
          "internalType": "address",
          "name": "",
          "type": "address"
        }
      ],
      "name": "authorizedProviders",
      "outputs": [
        {
          "internalType": "bool",
          "name": "",
          "type": "bool"
        }
      ],
      "stateMutability": "view",
      "type": "function"
    },
    {
      "inputs": [
        {
          "internalType": "uint256",
          "name": "",
          "type": "uint256"
        },
        {
          "internalType": "uint256",
          "name": "",
          "type": "uint256"
        }
      ],
      "name": "energyRecords",
      "outputs": [
        {
          "internalType": "uint256",
          "name": "projectId",
          "type": "uint256"
        },
        {
          "internalType": "uint256",
          "name": "energyProduced",
          "type": "uint256"
        },
        {
          "internalType": "uint256",
          "name": "timestamp",
          "type": "uint256"
        },
        {
          "internalType": "uint256",
          "name": "co2Reduced",
          "type": "uint256"
        },
        {
          "internalType": "bool",
          "name": "verified",
          "type": "bool"
        }
      ],
      "stateMutability": "view",
      "type": "function"
    },
    {
      "inputs": [
        {
          "internalType": "uint256",
          "name": "projectId",
          "type": "uint256"
        },
        {
          "internalType": "uint256",
          "name": "month",
          "type": "uint256"
        }
      ],
      "name": "getEnergyData",
      "outputs": [
        {
          "components": [
            {
              "internalType": "uint256",
              "name": "projectId",
              "type": "uint256"
            },
            {
              "internalType": "uint256",
              "name": "energyProduced",
              "type": "uint256"
            },
            {
              "internalType": "uint256",
              "name": "timestamp",
              "type": "uint256"
            },
            {
              "internalType": "uint256",
              "name": "co2Reduced",
              "type": "uint256"
            },
            {
              "internalType": "bool",
              "name": "verified",
              "type": "bool"
            }
          ],
          "internalType": "struct SolarOracle.EnergyData",
          "name": "",
          "type": "tuple"
        }
      ],
      "stateMutability": "view",
      "type": "function"
    },
    {
      "inputs": [
        {
          "internalType": "uint256",
          "name": "projectId",
          "type": "uint256"
        },
        {
          "internalType": "uint256",
          "name": "fromMonth",
          "type": "uint256"
        },
        {
          "internalType": "uint256",
          "name": "toMonth",
          "type": "uint256"
        }
      ],
      "name": "getTotalEnergy",
      "outputs": [
        {
          "internalType": "uint256",
          "name": "total",
          "type": "uint256"
        }
      ],
      "stateMutability": "view",
      "type": "function"
    },
    {
      "inputs": [],
      "name": "owner",
      "outputs": [
        {
          "internalType": "address",
          "name": "",
          "type": "address"
        }
      ],
      "stateMutability": "view",
      "type": "function"
    },
    {
      "inputs": [],
      "name": "renounceOwnership",
      "outputs": [],
      "stateMutability": "nonpayable",
      "type": "function"
    },
    {
      "inputs": [
        {
          "internalType": "uint256",
          "name": "projectId",
          "type": "uint256"
        },
        {
          "internalType": "uint256",
          "name": "month",
          "type": "uint256"
        },
        {
          "internalType": "uint256",
          "name": "energyProduced",
          "type": "uint256"
        }
      ],
      "name": "submitEnergyData",
      "outputs": [],
      "stateMutability": "nonpayable",
      "type": "function"
    },
    {
      "inputs": [
        {
          "internalType": "address",
          "name": "newOwner",
          "type": "address"
        }
      ],
      "name": "transferOwnership",
      "outputs": [],
      "stateMutability": "nonpayable",
      "type": "function"
    },
    {
      "inputs": [
        {
          "internalType": "uint256",
          "name": "projectId",
          "type": "uint256"
        },
        {
          "internalType": "uint256",
          "name": "month",
          "type": "uint256"
        }
      ],
      "name": "verifyData",
      "outputs": [],
      "stateMutability": "nonpayable",
      "type": "function"
    }
  ],
  "bytecode": "0x608060405234801561001057600080fd5b50338061003757604051631e4fbdf760e01b81526000600482015260240160405180910390fd5b61004081610060565b50336000908152600260205260409020805460ff191660011790556100b0565b600080546001600160a01b038381166001600160a01b0319831681178455604051919092169283917f8be0079c531659141344cd1fd0a4f28419497f9722a3daafe3b4186f6b6457e09190a35050565b6106ea806100bf6000396000f3fe608060405234801561001057600080fd5b506004361061009e5760003560e01c80638da5cb5b116100665780638da5cb5b1461012c57806394d8132114610147578063d7146e031461015a578063f2fde38b146101b1578063fbe5e549146101c457600080fd5b8063112ea262146100a357806369dc3ae2146100b8578063715018a6146100f057806376f5d6a9146100f8578063858450c21461010b575b600080fd5b6100b66100b13660046105bb565b610235565b005b6100db6100c63660046105bb565b60026020526000908152604090205460ff1681565b60405190151581526020015b60405180910390f35b6100b6610289565b6100b66101063660046105eb565b61029d565b61011e6101193660046105eb565b6103b9565b6040519081526020016100e7565b6000546040516001600160a01b0390911681526020016100e7565b6100b6610155366004610617565b610406565b61016d610168366004610617565b61046d565b6040516100e79190600060a0820190508251825260208301516020830152604083015160408301526060830151606083015260808301511515608083015292915050565b6100b66101bf3660046105bb565b610500565b61020b6101d2366004610617565b60016020818152600093845260408085209091529183529120805491810154600282015460038301546004909301549192909160ff1685565b6040805195865260208601949094529284019190915260608301521515608082015260a0016100e7565b61023d61053e565b6001600160a01b038116600081815260026020526040808220805460ff19166001179055517f30aad5ec8e5ced8ded7e45959f743df649dbc96638aa1a73a56bb0c4e25aab3a9190a250565b61029161053e565b61029b600061056b565b565b3360009081526002602052604090205460ff166102f25760405162461bcd60e51b815260206004820152600e60248201526d139bdd08185d5d1a1bdc9a5e995960921b60448201526064015b60405180910390fd5b6000600a61030183600561064f565b61030b9190610666565b6040805160a081018252868152602080820186815242838501908152606084018681526000608086018181528c825260018087528883208d84528752918890209651875593519086015590516002850155516003840155516004909201805460ff191692151592909217909155815186815290810185905291925085917fd577e8e1e6ecb6e069a57b077b736feb6b477082cd7d1aca80231ecbb0f7fd66910160405180910390a250505050565b6000825b8281116103fe57600085815260016020818152604080842085855290915290912001546103ea9083610688565b9150806103f68161069b565b9150506103bd565b509392505050565b61040e61053e565b6000828152600160208181526040808420858552825292839020600401805460ff1916909217909155905182815283917f17b5981ec981bd7905f3c1a8f44eac74f1236f455c976b1fcdf6ac15002a4b2a910160405180910390a25050565b6104a16040518060a00160405280600081526020016000815260200160008152602001600081526020016000151581525090565b506000828152600160208181526040808420858552825292839020835160a0810185528154815292810154918301919091526002810154928201929092526003820154606082015260049091015460ff16151560808201525b92915050565b61050861053e565b6001600160a01b03811661053257604051631e4fbdf760e01b8152600060048201526024016102e9565b61053b8161056b565b50565b6000546001600160a01b0316331461029b5760405163118cdaa760e01b81523360048201526024016102e9565b600080546001600160a01b038381166001600160a01b0319831681178455604051919092169283917f8be0079c531659141344cd1fd0a4f28419497f9722a3daafe3b4186f6b6457e09190a35050565b6000602082840312156105cd57600080fd5b81356001600160a01b03811681146105e457600080fd5b9392505050565b60008060006060848603121561060057600080fd5b505081359360208301359350604090920135919050565b6000806040838503121561062a57600080fd5b50508035926020909101359150565b634e487b7160e01b600052601160045260246000fd5b80820281158282048414176104fa576104fa610639565b60008261068357634e487b7160e01b600052601260045260246000fd5b500490565b808201808211156104fa576104fa610639565b6000600182016106ad576106ad610639565b506001019056fea2646970667358221220d5288689073d79f9d94843570473a4c419285ea246228ee48549980b02fd9ffb64736f6c63430008140033",
  "linkReferences": {},
  "deployedLinkReferences": {}
}